:020000040800F2
:10000000A80C0020790200086F5D0008F544000884
:100010006D5D0008371F0008296900080000000016
:100020000000000000000000000000008D5F0008DC
:10003000391F000800000000715D00086D600008B5
:10004000930200089302000893020008930200083C
:10005000930200089302000893020008930200082C
:10006000930200089302000893020008930200081C
:10007000930200089302000893020008930200080C
:1000800093020008930200089302000893020008FC
:1000900093020008930200089302000893020008EC
:1000A00093020008930200089302000893020008DC
:1000B000D1600008DD600008930200089302000888
:1000C0009302000805450008F9440008930200085F
:1000D000735D0008C16800081D69000893020008EC
:1000E0003B1F00089302000893020008E960000823
:1000F0000D61000801610008F56000089302000826
:10010000930200089302000893020008930200087B
:10011000930200089302000893020008930200086B
:10012000930200089302000893020008930200085B
:1001300000F002F800F090F80AA090E8000C824469
:100140008344AAF10107DA4501D100F085F8AFF246
:10015000090EBAE80F0013F0010F18BFFB1A43F0A5
:1001600001031847488E0000688E0000103A24BF33
:1001700078C878C1FAD8520724BF30C830C144BF0C
:1001800004680C607047000000230024002500264E
:10019000103A28BF78C1FBD8520728BF30C148BFEA
:1001A0000B6070476E2900F0FC83702900F05587C2
:1001B000662908F0CE84652908F0CB84672908F009
:1001C000C884612908F0C78403681B0A28BF41F06E
:1001D0008001692900F0D480642900F0D18075295C
:1001E00000F0CE806F2900F0E286782900F02187A8
:1001F000E92900F07D86E42900F07A86F52900F0EF
:100200007786EF2900F0DF86F82900F02087036861
:10021000DB0928BF41F08001632901F09B8173292C
:1002200001F0A081E32901F0AB81F32901F0B08155
:10023000002070471FB500F0F5FA040000200021EF
:1002400008F0B0F9401C60600020002108F0C0F9FF
:10025000E0601FBD10B510BD01F070FA1146FFF748
:10026000E9FF06F0FDFB01F08EFA03B4FFF7F2FFA1
:1002700003BC01F091FA0000094880470948004793
:10028000FEE7FEE7FEE7FEE7FEE7FEE7FEE7FEE746
:10029000FEE7FEE704480549054A064B70470000A3
:1002A000CF60000831010008A8060020A80C00203B
:1002B000A8080020A808002010B500F0B3FA001D1F
:1002C00010BD00BFE182000010B50446FFF7F4FF47
:1002D0000068005D000704D5DF2C02D0A4F12000E7
:1002E00010BD204610BD00007CB51D4616460C0012
:1002F000009001D02044401E074B7B442A466946AB
:100300000190304600F075FD05461CB1002069469D
:1003100000F082FD28467CBD250B00000FB41CB503
:10032000084B06AA7B4469460090059800F061FDE1
:1003300004460020694600F06FFD20461CBC5DF8B5
:1003400014FB0000F10A00000FB47CB50C0009AAF0
:10035000009001D02044401E084B7B446946019028
:10036000089800F046FD05461CB10020694600F0E3
:1003700053FD28467CBC5DF814FB0000C50A000054
:100380002DE9F0410646002410687529314616A56E
:1003900010D000F072FA002802DA404213A507E0FC
:1003A00031688A0701D512A502E0490704D511A5D5
:1003B000012401E000F06AFA00210A2206F1240774
:1003C00009E0B0FBF2FCB0FBF2F302FB1C003030A2
:1003D00078541846491C0028F3D123462A46304653
:1003E000BDE8F04100F084BA000000002D000000DC
:1003F0002B000000200000002DE9F05F8946044634
:100400004FF0000ADFF874B1FB44C0F820A020468A
:10041000E1688847002874D0252806D0D4E9012156
:100420009047206A401C2062F1E700265F46204684
:10043000E16888472028054607DB312D05D2781969
:1004400010F8200C08B10643F1E7B00701D526F0FB
:100450000406C4F81CA00027C4F818A02A2D09D04F
:10046000284606F086FA38B304EB8708303DC8F812
:10047000185019E059F8041B204604EB87029161DB
:10048000E1688847012F054618D1E069002820DA85
:1004900026F020061DE0D8F8180000EB800005EBE0
:1004A00040003038C8F818002046E1688847054603
:1004B00006F05FFA0028EED1012F0AD02E2D08D1C8
:1004C0002046E16888477F1C0546022F46F020063B
:1004D000C4DBA069002803DA404246F00106A061AF
:1004E000F00701D026F010066C2D0BD0682D09D036
:1004F0004C2D39D06A2D35D0742D35D07A2D33D08E
:1005000016E038E0E1682F4620468847B8420546A5
:1005100009D16C2F26D04FF48060E1680643204655
:100520008847054604E06C2F1AD04FF480700643CC
:100530000DB3A5F14100192802D8203546F4006614
:100540004A462946204626604E46FFF72BFE80B1DC
:1005500001280BD0F61D26F0070000F1080956E728
:100560004020E4E78020D8E70020D6E706F1040920
:100570004DE7284652E7206ABDE8F09F78870000E3
:1005800040EA0103024630B59B0710D14FF0013419
:1005900000E008C208C91D1B9D4315EAC41FF8D01E
:1005A00013F0FF0102F8011B0DD01B0AF8E711F848
:1005B000013B002B02F8013B05D011F8013B002B59
:1005C00002F8013BF3D130BD10B5431C02E010F836
:1005D000011B71B18107FAD14FF0013202C88C1AA8
:1005E0008C4314EAC211F9D0C01A0A0603D0C01E07
:1005F00010BDC01A10BD0A0401D0801E10BD090232
:10060000FCD0401E10BD032A40F2308010F0030CD5
:1006100000F0158011F8013BBCF1020F624498BF55
:1006200011F801CB00F8013B38BF11F8013BA2F1F2
:10063000040298BF00F801CB38BF00F8013B11F06D
:10064000030300F06780083AC0F0088051F8043BCB
:10065000083A51F804CBA0E80810F5E7121D5CBF7A
:1006600051F8043B40F8043BAFF30080D20724BFAD
:1006700011F8013B11F801CB48BF11F8012B24BF41
:1006800000F8013B00F801CB48BF00F8012B704790
:10069000431A28BF9A427FF6B6AF032A104411448A
:1006A00040F2268010F0030F1EBF11F8013D521ECC
:1006B00000F8013D10F0030F7FF4F6AF11F00303D3
:1006C00000F0E984083AC0F00B8051F8043D083A84
:1006D00051F804CD40F8043D40F804CDFFF7F3BFD6
:1006E000121D5CBF51F8043D40F8043DAFF300809B
:1006F000D20724BF11F8013D11F801CD48BF11F810
:10070000012C24BF00F8013D00F801CD48BF00F8DE
:10071000012C704710B5203AC0F00B80B1E818509A
:10072000203AA0E81850B1E81850A0E81850BFF4DB
:10073000F5AF5FEA027C24BFB1E81850A0E818507A
:1007400044BF18C918C0BDE810405FEA827C24BFCE
:1007500051F8043B40F8043B08BF7047D20728BF5C
:1007600031F8023B48BF11F8012B28BF20F8023BAB
:1007700048BF00F8012B70474FF0000200B5134648
:1007800094469646203922BFA0E80C50A0E80C50B1
:10079000B1F12001BFF4F7AF090728BFA0E80C5062
:1007A00048BF0CC05DF804EB890028BF40F8042B5B
:1007B00008BF704748BF20F8022B11F0804F18BFC8
:1007C00000F8012B704710B5044610F0030F08BF66
:1007D00011F0030F40F015804FF0013E121FC0F2E0
:1007E0000E8051F8043BA3EB0E0C2CEA030C1CEA20
:1007F000CE1C08BF40F8043BF0D0A1F1040102F187
:100800000402521E08DB11F8013B002B00F8013BEB
:10081000F7D1114600F069FC204610BD70477047C3
:1008200070470000004870476406002070B5044619
:1008300085690068C10601D5302600E02026C00782
:1008400007D070BDD4E9012130469047206A401C92
:1008500020626D1EF6D570BD70B5044685690078BE
:10086000C00707D170BDD4E9012120209047206A3C
:10087000401C20626D1EF6D570BD09684A0501D581
:1008800040B27047C905FCD500B2704709684A05F7
:1008900001D5C0B27047C905FCD580B2704770B5AC
:1008A0000C460546012A05D02878800600D5EA695D
:1008B000002302E0012305E05B1C934202D2E05CCE
:1008C0000028F9D1A869E618C01AA861286A184456
:1008D00028622846FFF7AAFF04E0D5E9012114F8B1
:1008E000010B9047B442F8D32846FFF7B5FF70BD1F
:1008F0002DE9F0470D4699469246044600F124083A
:100900000168880604D5E06921F01001216000E04B
:100910000120A84201DD471B00E00027A1697A19E8
:1009200002EB0900081AA0612078C00602D4204614
:10093000FFF77CFF002608E0D4E901211AF8060041
:100940009047206A401C761C20624E45F4DB2078DC
:10095000C0060AD52046FFF769FF06E0D4E9012169
:1009600030209047206A401C2062381EA7F1010702
:10097000F4DC07E0D4E9012118F805009047206A6B
:10098000401C2062281EA5F10105F3DC2046FFF77C
:1009900063FF2078000602D50220BDE8F087012021
:1009A000FBE711680268006A530501D508700AE088
:1009B000D30501D5088006E0130603D5C217C1E9A7
:1009C000000200E008600120704770472DE9FF4FEA
:1009D0000C461E464FF0FF378BB0D2E90001DDF820
:1009E00060800A908A46C1F30A5505B93D46002148
:1009F00008464FF00000BAF1000F00F4400005DA9D
:100A000000EB80004FF4400101EA50004FEA90599A
:100A1000B9F1010F00DDB9460A9850EA4A000ED03C
:100A200044F61050A5F2FF3545432F14B8F1000FDE
:100A30001ED07542291E1EDDC9F100021CE0B8F16E
:100A4000010F4FF0000001D0302103E0F24305E038
:100A50002154401CB042FBDB3046002200212154CF
:100A60000B99C1F80880C1E900200FB0BDE8F08FF4
:100A7000BD1B6D1CDEE74A4600DA694206A800F09D
:100A80008BFD06AB93E8070003AB83E807005046F5
:100A90000A9900F088FE8DE80700A0F500501F3885
:100AA00000900398002D0ADD42F21F014A460844D7
:100AB000002303A90390684601F0F1F809E0A0F5CE
:100AC00000504A461F38002303A90390684601F0EE
:100AD000FBF88DE807000004000C03D04FF0FF3056
:100AE000410800E01046B8F1000F03D00022009248
:100AF00015461EE0751E05D400F01EFB303262550F
:100B00006D1EF9D5B3460122084302D000227F1C96
:100B100004E02078302801D100227F1E002A0997A6
:100B200084D01DE0112D07DA00F006FB303262554B
:100B30006D1C50EA0102F5D1084302D00098C8B1FB
:100B40000EE00021681E05E0235C625C63542254C1
:100B5000401E491C8142F7DBAB46A81B401E099092
:100B6000002004F80B000B98099AC0F80880C0E92F
:100B7000002B7AE711264FF0000857E72DE9F04FD8
:100B800088460446D21D22F0070191B0D1E9000148
:100B9000CDE90A0105F0C9FE02460B98C00F01D04D
:100BA0002D2007E02068810701D52B2002E02021BD
:100BB00001EAC000032A099001D0072A05DB034699
:100BC0004146204600F07CFC0BE12078800601D5F0
:100BD000E06900E00620B8F1650F814606D0B8F163
:100BE000660F18D0B8F1670F70D131E00020B9F16D
:100BF000110F009001DB112301E009F101030AAAA2
:100C000001A90CA8FFF7E2FEDDE90C70002609F14E
:100C10000105834647E001204B4600904FF0004716
:100C20000AAA01A90CA8FFF7D1FEDDE90DB00C99C5
:100C30005D46002610B909F101000D18B9EB050059
:100C400003D4C0F1FF3609F10105A5EB09002BE043
:100C5000B9F1010F01DA4FF001090020B9F1110FCC
:100C60000090484601DD112300E003460AAA01A9CD
:100C70000CA8FFF7ABFEDDE90C704D46002683465D
:100C8000207800070AD4AB4500DA5D4601A8012DA3
:100C900004DD411911F8011C302907D04F4502DA53
:100CA00017F1040F04DA012082460FE06D1EEEE713
:100CB000002F02DCED1B3E4403E0781CA84200DD5F
:100CC0007D1CB81B00F1010A4FF000472078000797
:100CD00003D4AA4501DB4FF0FF3A0021B7F1004FE2
:100CE0000DF143088DF8431024D002202B23002F50
:100CF00001DA7F422D230A21021EA0F1010000DC4F
:100D00005FB197FBF1FC97FBF1F201FB1C7C1746EE
:100D10000CF1300C08F801CDEEE7A8F101000370EA
:100D20002188090501D5452100E06521A0F10108D0
:100D300000F8011C09980FA9A1EB0807FF1D00B1DD
:100D40000120411901EBEA70A1693844081A401EDC
:100D5000A0612078C00602D42046FFF767FD0998FD
:100D600028B1D4E901219047206A401C20622078F4
:100D7000C00622D52046FFF759FD1EE0002E04DBF9
:100D8000B34502DD01A8805D00E03020D4E90121F7
:100D90009047206A401C2062761CAAF101005FEA9D
:100DA000000A0AD1FFF73EFDC0680168405CD4E943
:100DB00001219047206A401C2062281EA5F10105F0
:100DC000DCDC07E0D4E9012118F8010B9047206A28
:100DD000401C2062381EA7F10107F3DC2046FFF714
:100DE0003BFD032011B041E601694A1C026108780D
:100DF000704700B58FB0CDE901310021059105495B
:100E00007944CDE9031011466846FFF7F5FA0FB0B3
:100E100000BD0000E5FFFFFF0A6802F8010B0A6051
:100E20007047D1E900239A4202D2531C0B60107024
:100E3000704700002DE9FF5F15468A460446DFF83B
:100E4000AC80F8440027D8E900103E46CDE90010F8
:100E500010E03AF816106A4602A800F00FFC411C98
:100E600007D02178890603D5E269391891420DD857
:100E70000744761C2078800602D5E069B84205DD7B
:100E8000AE42E6DB3AF816000028E2D1A069C01BAA
:100E9000A0612046FFF7CAFCD8E90010CDE9001098
:100EA000002017E03AF818106A4602A800F0E6FBA6
:100EB000B0F1FF3F81460BD000250DF1080B05E096
:100EC000D4E901211BF8050090476D1C4D45F7D36F
:100ED00008F10100B0428046E4DB206A3844206219
:100EE0002046FFF7B9FCBDE8FF9F0000527D0000DF
:100EF0002DE9F0418046D21D22F007020025D2E9FB
:100F00000002F52915A614D0011E72F1000106DABF
:100F10000023D0EB030063EB020211A608E0D8F82F
:100F200000108B0701D50FA602E0490701D50EA6D8
:100F300001251146002408F1240704E000F0FCF824
:100F400030323A55641C50EA0102F7D12B46324642
:100F500021464046BDE8F041FFF7CABC0000000052
:100F60002D0000002B0000002000000030B4002104
:100F700000F1240408E002F00705D208303542EA07
:100F80004372DB086554491C52EA0305F3D1046837
:100F9000002310A2250707D5A40600D421B1C469F7
:100FA00001230DA2641EC46130BCFFF7A1BC10B5C3
:100FB000044621461068FFF769FC02462046BDE85A
:100FC00010400023D2E7D21D22F00701D1E900230F
:100FD000CCE700000000000030000000F0B40D4637
:100FE0000188090502D5214C7C4402E01F4C7C4459
:100FF0000E34002100F1240608E002F00F07120968
:10100000E75D42EA03721B097754491C52EA030761
:10101000F3D102780023120704D5702D06D009B150
:10102000022311342246F0BCFFF762BC01231034C6
:10103000F8E770B504460D4621461068FFF726FC18
:10104000024629462046BDE870400023C6E7D21D6F
:1010500022F00703D3E90023C0E70368126843F0D6
:10106000200303600823C3610023B7E7B47B0000BB
:10107000431A28BF9A427FF64DAB104410F0030F7D
:1010800011441EBF11F8013D521E00F8013D10F041
:10109000030F7FF4F6AF103AC0F00A8010B531E9C3
:1010A0001850103A20E91850BFF4F9AFBDE81040CD
:1010B000530724BF31E9081020E9081044BF51F854
:1010C000043D40F8043D12F0030F08BF7047D207FB
:1010D00028BF31F8023D48BF11F8012C28BF20F885
:1010E000023D48BF00F8012C70474FF00002042970
:1010F000C0F0128010F0030C3FF440ABCCF1040CB4
:10110000BCF1020F18BF00F8012BA8BF20F8022B7A
:10111000A1EB0C01FFF732BB5FEAC17C24BF00F8F2
:10112000012B00F8012B48BF00F8012B704700008D
:10113000004870474406002030B5B0F10A024FEA7B
:10114000900E71F100034EEA817EB0EB0E0061EB70
:1011500091014FEA101E4EEA017E10EB0E0041EBAA
:1011600011114FEA102E4EEA016E10EB0E0041EB0A
:1011700011214FEA104E4EEA014E10EB0E0041EBEA
:101180001141401841F100014FEAD00040EA41709E
:101190004FEAD10110EB80054FEA810444EA9074D4
:1011A00044EB01046D1944EB0404521BA3414FF0BE
:1011B000000348BF0A3200D530BD401C41F1000198
:1011C00030BD00002DE9F04F04460D46D21D22F03F
:1011D000070089B0D0E900974846394605F0A5FBDD
:1011E0000246F80F01D02D2307E02068810701D5C2
:1011F0002B2302E0202101EAC0038DF820300BB13F
:10120000012000E00020032A824601D0072A04DBE7
:101210002946204600F054F93FE12078800601D4A9
:101220000D2500E0E569C7F30A560D2D49DA0021C6
:101230004FEA175B08464FF00000002F00F4400013
:1012400007DA00EB80004FF4400100EBD07001EAB8
:1012500060008115012901DD4FF0FF3100224FEAC6
:10126000850CBCF1180F06D31346ACF118004FF0F3
:101270008052C24003E04FF4801323FA0CF30CF1C8
:101280000C0CBCF1200F04D3ACF1200C09FA0CF0CB
:1012900001E007FA0CF000294FF0004801DD18B911
:1012A0000FE00ED140450CD319EB02095F4121B983
:1012B000404502D19F4329EA0209BBEB175F00D0EA
:1012C000761C2088000502D57B48784402E07A48E5
:1012D0007844193808AA302302F80A30037C0AF14E
:1012E0000101002E0AF1020A53546A4602DC4FF053
:1012F000300101E04FF031014FF001088DF800108E
:1013000002D0A6F2FF3603E059EA470100D06B4E47
:10131000002D02DC2178090704D54FF002082E21A8
:101320008DF80110C44600210BE0C7F303433F01D1
:10133000C35C491C6D1E02F80830052908F101083C
:1013400001DA002DF1DC00210CE000EB1973491CDF
:101350001B786D1E082902F808304FEA091908F1B8
:10136000010801DA002DF0DC21688B0602D516E0B9
:10137000A8F10108E04505DD02EB080313F8013C84
:10138000302BF5D0B8F1000F09DD02EB080313F89C
:10139000013C2E2B03D1090701D4A8F10108002D2F
:1013A00005DD3E2102F808106D1E08F10108407CA1
:1013B000002E02F8080008F1010804DA2D20764218
:1013C00002F8080002E02B2002F808000A214FF47E
:1013D0007A70864208F101080BDB96FBF0F330339C
:1013E00002F8083096FBF0F308F1010800FB1366E1
:1013F00001E0642E0CDB642096FBF0F3303302F83E
:10140000083096FBF0F308F1010800FB136601E0D9
:101410000A2E06DB96FBF1F0303002F8080008F1E6
:10142000010896FBF1F001FB1060303002F8080073
:10143000A16908F1010808EB050202EB0A00081A8D
:10144000A0612078C00602D42046FFF7EFF9216A98
:1014500008AE01EB0A00206204E0D4E9012116F88D
:10146000010B9047BAF1010AF7D22078C00602D5E5
:101470002046FFF7DBF96E4609E016F8010B3E281F
:101480000FD0D4E901219047206A401C2062B8F1B6
:101490000108F2D22046FFF7DFF909B00320BDE8CA
:1014A000F08F206A2844206203E0D4E90121302033
:1014B00090476D1EEBD3F8E70D79000002FCFFFFAB
:1014C0002DE9F0411F46044603260168072A01F46E
:1014D000006004DB08B116A505E016A503E008B11D
:1014E00015A500E015A521F010002060A069C01E20
:1014F000A0610FB1401EA0612046FFF797F94FB1E0
:10150000D4E9012138469047206A401C2062C01C63
:10151000206206E0206AFAE7D4E9012115F8010B00
:101520009047761EF8D22046FFF796F9BDE8F08185
:101530004E414E006E616E00494E4600696E660077
:1015400010B5436913B1AFF3008001E0FFF7A7F9CD
:10155000012010BD127800F124010A7000224A70A7
:101560000122EDE711684FF0FF32E9E710B543695A
:1015700013B1AFF3008001E0FFF75CFC012010BD68
:10158000128800F1240182840022C2840122EDE746
:1015900011684FF0FF32E9E72DE9F0478146164622
:1015A0008AB0354878440DC88DE80D00324878443B
:1015B000801C03AC0DC884E80D0041F69B30084444
:1015C000372190FBF1F290FBF1F5A5F1800501FBCD
:1015D00012041B3C02D56442012000E00020DFF829
:1015E00098A080460027FA44AAF1BE0A0EE0E00760
:1015F0000AD03246684607EB470101230AEB810116
:1016000000F062FB8DE8070064107F1C002CEED117
:10161000194F7F44AE3F19E0E80715D007EB0410DF
:101620000DF1180A90E80E008AE80E00C068F0423A
:1016300001D1981908903246012306A903A800F0A9
:1016400043FB03AB83E807006D10641C002DE3D15E
:101650004FF0010332466946B8F1000F03A802D0EB
:1016600000F01DFB01E000F02FFBC9E90001C9F803
:1016700008200AB0BDE8F087C476000070B51646B1
:101680000C460546FEF718FE036893F80101012891
:1016900006D0FF2C0FD8185D68B101202C7070BDEA
:1016A000D3F807013246214603F2071303442846C4
:1016B000BDE8704018474FF0FF3070BD4FF0013C5F
:1016C00050F8042B51F8043B9A4221D1A2EB0C03B1
:1016D000934313EACC1317D150F8042B51F8043B71
:1016E0009A4215D1A2EB0C03934313EACC130BD10E
:1016F00050F8042B51F8043B9A4209D1A2EB0C0399
:10170000934313EACC13DBD04FF00000704700BFC7
:10171000D01A01BAB1FA81F101F0180122FA01F0F0
:10172000CB40C1F12001DBB2C0B2C01A2CFA01F3E8
:10173000D11A914311EAC311E6D170477546FFF7FC
:10174000F7FCAE4605006946534620F00700854683
:1017500018B020B5FEF79EFDBDE820404FF0000612
:101760004FF000074FF000084FF0000B21F0070189
:10177000AC46ACE8C009ACE8C009ACE8C009ACE8CC
:10178000C0098D46704710B50446AFF3008020466F
:10179000BDE81040FEF769BD01491820ABBEFEE769
:1017A0002600020070475FEA400C08BF91F0000F6E
:1017B0004FEA8C234FEAC12243EA51514FEA1C50B1
:1017C00018BF00F5F0404FEA300018BF41F000416B
:1017D0005FEA6C5C00F02980BCF1FF3F08BF40F07D
:1017E00080407047130C06BF12044FF0100C4FF0EE
:1017F000000C130E04BF12020CF1080C130F04BFEF
:1018000012010CF1040C930F04BF92000CF1020CB6
:10181000D30F04BF52000CF1010C11464FF000022F
:10182000A0F11F00A0EB0C00704711F0004F08BFA3
:10183000704731F000413FF4D5AF0B0C06BF0904EF
:101840004FF0100C4FF0000C0B0E04BF09020CF10E
:10185000080C0B0F04BF09010CF1040C8B0F04BF23
:1018600089000CF1020CCB0F04BF49000CF1010CF4
:10187000CCF12003A0EB0C0022FA03F302FA0CF2E5
:1018800041EA030100F10100704720F07F4C80EA3B
:10189000030023F07F47ACEB070303F57C5300F014
:1018A000004003F1FF032DE980494FEA154B09B4CD
:1018B0004FEA144325EA0B4E24EA03480FF20426AC
:1018C00006EB132749083E785FEA320203FB0667FE
:1018D000C7F5000707FB06F64FEA54374FEAD6462E
:1018E00006F1020607FB066CCCF1005C4FEA1C47D0
:1018F0002CEA074C07FB06F40CFB06F504EB154637
:101900004FEA961634BF00204FF000404FEAD1371F
:1019100006FB07FC4FEA1C4C0CFB0BF7D21B03FB2E
:101920000CF761EB07010CFB0EF7B0EB074072EB15
:1019300017420CFB08F734BFA2EB0742B2EB074299
:1019400061EB17414FEA0C444FEA910706FB07FC95
:101950004FEA1C4C0CFB0BF7B0EBC74072EB573255
:1019600003FB0CF734BFA2EBC742B2EBC74261EBFB
:1019700057310CFB0EF7B0EBC70072EB57720CFB44
:1019800008F734BFA2EBC702B2EBC70261EB577195
:10199000039F4FEA816141EA921104EBCC044FEAC4
:1019A000D1374FEA826206FB07FC42EA90124FEA07
:1019B00080604FEA1C4C0CFB0BF7D21B03FB0CF7AF
:1019C00061EB07010CFB0EF7B0EB074072EB17421F
:1019D0000CFB08F734BFA2EB0742B2EB074261EB06
:1019E00017414FEA8C554FEA910704EB9C2406FB04
:1019F00007FC4FEA1C4C0CFB0BF7B0EBC74072EB3B
:101A0000573203FB0CF734BFA2EBC742B2EBC7421D
:101A100061EB57310CFB0EF7B0EBC70072EB57725E
:101A20000CFB08F734BFA2EBC702B2EBC70261EBB5
:101A3000577115EB4C254FEA816141EA92114FEA4B
:101A400082624FEAD13742EA901206FB07FC44F16A
:101A500000044FEA80604FEA1C4C0CFB0BF7D21BD2
:101A600003FB0CF761EB07010CFB0EF7B0EB074033
:101A700072EB17420CFB08F734BFA2EB0742B2EB44
:101A8000074261EB174115EB1C154FEA813141EA22
:101A900092414FEA823242EA90424FEA80304FEA66
:101AA0000C7644F1000448EA03434EEA0B484FF039
:101AB000000EB2EB080C71EB030724BF62463946F7
:101AC0004EEB0E0E4FF0000B0018524149414BEB0C
:101AD0000B0BB2EB080C71EB03077BF1000B24BF7F
:101AE000624639464EEB0E0E4FF0000B0018524185
:101AF00049414BEB0B0BB2EB080C71EB03077BF18D
:101B0000000B24BF624639464EEB0E0E51EA020727
:101B100018BF46F0010616EB0E7655F1000254F19F
:101B2000000103D5BDE88901BDE80088BDE8890151
:101B3000BDE80048B619524141EB0101A3F1010390
:101B4000704780807F7E7D7C7B7A7978777676752A
:101B50007473727171706F6E6E6D6C6C6B6A6A69A2
:101B60006868676666656464636362616160605F3C
:101B70005F5E5E5D5D5C5C5B5B5A5A5959585857B5
:101B8000575656555555545453535252525151501D
:101B900050504F4F4F4E4E4D4D4D4C4C4C4B4B4B70
:101BA0004A4A4A49494948484847474747464646B6
:101BB00045454544444444434343434242424241F1
:101BC0004141002B9C4630D477002BD01CB54FEA06
:101BD000370703B44FF010004FF01001BAF1000FB7
:101BE00006D0BCF1000FDCBF40F0080040F0080157
:101BF0004FF000000FBCBDE810400BF1010BBBF132
:101C0000010F08BF5FEA170722BF12F1010211F1AD
:101C100001014FF0004143F1000300F0004043EAAE
:101C200000007047F9D35708D0E746EA064613F19B
:101C3000400F4FEA16461FDD13F1200FDFBF16439A
:101C40000A46002120335B42BED0C3F1200746EA9A
:101C5000064602FA07F74FEA164646EA0706C3F1B8
:101C6000200722FA03F201FA07F721FA03F14FF0F5
:101C7000000342EA0702A7E746EA020646EA0646EA
:101C80004FEA164646EA0106BCBF46EA0646360C4F
:101C90004FF000034FF000024FF0000194E72DE9F0
:101CA000804C9A46934670B491E8380007C831EAF0
:101CB000400C48BF34EA430C03D5FFF7E6FDFFF7BD
:101CC00080FFF0BCBDE8008C2DE9804C9A4693461D
:101CD00070B491E8380007C810F0804F08BF13F0C7
:101CE000804F03D100F005F8FFF76BFFF0BCBDE8B3
:101CF000008C20F07F4780EA030023F07F4C07EB45
:101D00000C03A3F57C5300F00040A3F1FE0392F016
:101D1000000F00F0B38095F0000F00F077802DE900
:101D200001494FEA11404FEA144621EA004800FBFE
:101D300006FC24EA064708FB06F607FB08F800FB4A
:101D400007F718EB06484CEB164C4FEA124B18EB12
:101D500007484FEA15464CEB174022EA0B4E0BFBA7
:101D600006FC25EA06470EFB06F607FB0EFE0BFBFC
:101D700007F71EEB064E4CEB164C4FF000061EEB21
:101D8000074E4CEB174B18EB0B0840F1000018EB1B
:101D90000E0B58EB000840F100008F1A4FF00001C5
:101DA0003CBFC943661B14BFB5EB040C00213CBF0C
:101DB000C943F61B4FEA17444EEA8E0E27EA044544
:101DC0004FEA1C4704FB07622CEA074C05FB07F7A8
:101DD0000CFB05F604FB0CFC16EB074642EB174226
:101DE00016EB0C4642EB1C421BEB060658EB0202BC
:101DF000414146EA9E0601D5BDE80189B619524126
:101E000041EB0101A3F10103BDE801894FEA14454B
:101E10004FEA114724EA054621EA074C05FB07F47F
:101E200006FB07F70CFB06F105FB0CFC11EB074169
:101E300044EB17444FEA124711EB0C4144EB1C44AE
:101E400022EA074C05FB07F206FB07F70CFB06F638
:101E500005FB0CFC16EB074642EB174216EB0C4653
:101E600042EB1C456A1854F1000148BF7047B6198F
:101E7000524141EB0101A3F10103704795F0000FBE
:101E800037D04FEA11424FEA144721EA024624EACA
:101E9000074C02FB07F106FB07F70CFB06F402FBFD
:101EA0000CFC14EB074441EB17414FEA154714EBC8
:101EB0000C4441EB1C4125EA074C02FB07F506FBED
:101EC00007F70CFB06F602FB0CFC16EB074645EB8E
:101ED000174516EB0C4645EB1C42121951F1000157
:101EE00048BF7047B619524141EB0101A3F101030C
:101EF00070474FEA14454FEA114724EA054621EAA4
:101F0000074C05FB07F106FB07F70CFB06F24FF049
:101F1000000605FB0CFC12EB074241EB174112EBEC
:101F20000C4251EB1C4148BF7047921841EB010134
:101F3000A3F101037047FEE770474FF4805000F0B3
:101F4000D5B872B6FEE710B590F82110002202292C
:101F500005D00421816380F82020012010BD016894
:101F60000B6823F00E030B6001680B6823F001037C
:101F70000B6090F84030C46B012101FA03F36360F9
:101F800080F8211080F82020104610BD2DE9F05F68
:101F900090F821100024022903D004218163012438
:101FA00085E001680A6822F00E020A6001680A688A
:101FB00022F001020A603F4E3E4FB215DFF8F4C036
:101FC000DFF8F090DFF8ECA0DFF8E8B0DFF8E4E04D
:101FD0000168783F13011502ACF1640CA9F15009B6
:101FE000AAF13C0AABF1280BAEF1140E4FF48018A5
:101FF000B14227D9B9420ED0614512D049451DD012
:10200000514518D0594518D0714501D1424615E0C7
:10201000294EB14201D1012210E0274E1436B142BF
:1020200001D110220AE0244E2836B14206D0224ABD
:102030003C32914201D11A4600E02A461E49091F4E
:102040000A602BE0B94213D0614517D0494522D030
:1020500051451DD059451DD0714501D142461AE068
:10206000B14202D14FF0807215E0134EB14201D15E
:10207000012210E0104E1436B14201D110220AE0C4
:102080000D4E2836B14206D00B4A3C32914201D166
:102090001A4600E02A46074980394A60012180F843
:1020A0002110002180F82010416B01B188472046A3
:1020B000BDE8F09F800002400804024090F8210033
:1020C0007047000070B5044600F022F90546601C18
:1020D00002D004480078044400F01AF9401BA042E2
:1020E000FAD370BD6C00002070470000044910B5A1
:1020F0000A68024202D00860FFF7F6FF10BD000038
:10210000140401402DE9F84FDFF8C8910024A9F12B
:10211000040B23460F2709F1040AABF1040ED1E0AA
:102120000125A54006EA0502AA4276D1DFF8A8C13A
:102130004E68A6EB0C0866452BD00DDC032E34D080
:1021400005DC36B3012E19D0022E2FD11BE0112E43
:1021500016D0122E2AD119E0B8F5881F19D006DC46
:10216000B8F5803F15D0B8F5801F1FD111E0B8F544
:10217000001F0ED0B8F5041F18D10AE0CB6815E097
:10218000CB681B1D12E0CB6808330FE0CB680C3323
:102190000CE08B682BB1012B4FF0080303D0456195
:1021A00004E0042302E0056100E00023FF2A01D8D7
:1021B000064601E000F104064FEA840501D9A5F1C5
:1021C0002005D6F8008007FA05FC28EA0C0803FA77
:1021D00005F548EA0508C6F800804D68ED0070D5A1
:1021E0003E4DAE6946F00106AE61AD6924F00306CE
:1021F00005F0010500953A4D06EB050CDCF808509A
:10220000A607360F07FA06F825EA0805DFF8D48096
:10221000404503D14FF0000825E052E0DFF8C880C8
:10222000404502D14FF001081DE0DFF8C080404575
:1022300002D14FF0020816E0DFF8B480404502D129
:102240004FF003080FE0DFF8AC80404502D14FF0BB
:10225000040808E0DFF8A080404502D14FF00508EF
:1022600001E04FF0060808FA06F848EA0508CCF83D
:1022700008804D68D9F80060ED024D4601D516433F
:1022800000E096432E604D68DAF80060AD025546D6
:1022900001D5164300E096432E604D68DBF80060E0
:1022A000AD035D4601D5164300E096432E604D68B0
:1022B000DEF80060ED03754601D5164300E0964355
:1022C0002E60641C0A681646E2407FF429AFBDE820
:1022D000F88F0000080401400000111000100240B7
:1022E0000000014000080140000C014000100140C6
:1022F0000014014000180140001C014080680840A3
:1023000000D0012070470AB1016170470904FBE762
:1023100001488068704700006C00002070477047DB
:102320002DE9F041016804464A694E6890F83E0084
:102330000025D743FA050BD4F243D20508D46FF435
:10234000807201254A6121680A6842F400420A60ED
:10235000B90508D4F143C90505D422686FF40071AA
:1023600045F002055161790525D4F143C90522D410
:10237000638D94F83D10226B202808D13BB92129A8
:1023800010D029290ED0282901D1212A0AD022686B
:102390006FF48061516145F00405102806D0402893
:1023A00004D008E0204603F01BF804E02068016830
:1023B00041F400710160380508D4F043C00505D42C
:1023C00021686FF4006045F008054861002D07D0D2
:1023D000206C284320642046BDE8F04102F01CBB7D
:1023E000BDE8F0812DE9F047026800215368C66A14
:1023F00090F83E4090F83D50102C12D0402C10D058
:10240000046C002C7DD05469E443A6077AD4DE43E3
:10241000B60577D4036C03B19169BDE8F04702F0CB
:10242000BBBF976951694FF42A0CC9435FEAC17871
:102430004FF02A4904D066452AD04E4528D010E0F6
:10244000DE43B6050DD4C16A614501D1012103E027
:10245000C16A494501D10821C162BDE8F04702F0D7
:1024600093BE0E0716D4DE43B60513D4416CC9B231
:102470001161416B09B1896A29B9816B002907D0C3
:10248000896A002904D00068416841F40061416014
:10249000BDE8F0878E0706D4DE43B60503D4BDE859
:1024A000F04702F0C5BDFE43526876074FEA02527C
:1024B0001DD4002AECDB0A0608D4DA43520505D401
:1024C000490705D5BDE8F04702F056BD4907DFD4FE
:1024D000D9438905DCD4212D05D0402CD8D1BDE8C5
:1024E000F04702F097BEBDE8F04702F003BD002AB6
:1024F000CEDB4A060BD4DA43520508D4490708D587
:1025000001E00DE00EE0BDE8F04702F0B5BB490781
:10251000BED4D9438905BBD4BDE8F04702F03FBB28
:10252000916970E7E10606D4D943890503D4BDE873
:10253000F04702F09DBF2821212D27D0292D25D03D
:10254000650655D4DD436D0552D4640752D590F825
:102550003D30448D002C9BD01269446A2270426A3F
:10256000521C4262428D521E4285428D002A8FD1FA
:102570002A2B8DD10268536823F480635360222292
:10258000026380F83D1000F031FC81E7250623D47A
:10259000DD436D0520D4640720D590F83D30448D8F
:1025A000002CF2D0446A24781461426A521C4262C0
:1025B000428D521E4285428D002AE6D1292BE4D15C
:1025C0000268536823F4806353602122026380F819
:1025D0003D1000F00CFC5BE76107D6D4D9438905B8
:1025E000D3D4418D0029D0D0416A097811610AE025
:1025F0006107CAD4D9438905C7D4418D0029C4D005
:102600001169426A1170416A491C4162418D491E3B
:1026100041853DE7704790F83D00704770B5040074
:1026200025D094F83D00002520B984F83C50204680
:1026300000F032FB242084F83D002068016821F07E
:10264000010101602068016841F4004101602068D7
:10265000016821F40041016000F0F8FC4D4A616816
:10266000914201D84C4900E04C49884201D20120F6
:1026700070BD4B492368B0FBF1F15E6826F03F0660
:102680000E435E606368934206D94FF496735943D4
:102690004FF47A73B1FBF3F12368491C1E6A26F0EC
:1026A0003F06314319626168914210D84900401ECB
:1026B000B0FBF1F2521CC2F30B02042A01D2042037
:1026C00022E0B0FBF1F0401CC0F30B001CE0A2685C
:1026D000F2B301EBC10303EB0116431EB3FBF6F3A8
:1026E0005B1C43F480431B0549D092B301EBC1024C
:1026F00002EB0111401EB0FBF1F0401CC0F30B00D7
:1027000040F4804040F400402168CA694CF6FF73F1
:102710009A431043C861D4E9071001432068026856
:1027200022F0C00211430160D4E903010143206893
:10273000826848F2FF339A4311438160D4E905016E
:1027400008432168CA6822F0FF021043C86001E014
:102750000EE016E02068016841F001010160256487
:10276000202084F83D00256384F83E50002070BD91
:1027700001EB4106431EB3FBF6F35B1CB3E70120FC
:10278000C2E701EB4101401EB0FBF1F0401CC0F379
:102790000B00B7E7A086010080841E0000093D0001
:1027A00040420F002DE9FF4F81B089460446FFF7F4
:1027B000AFFD054694F83D004FF0000820287DD17C
:1027C0001923012250492046009502F02BFF0028D2
:1027D00074D194F83C00012870D0012084F83C00AA
:1027E00020680168C90703D1016841F00101016057
:1027F0002068016821F400610160242084F83D0014
:10280000002626644148E0624FF0011B2027206823
:10281000016841F48071016000950022594620460C
:10282000049B02F0FFFE50B120680068C00502D58D
:102830004FF400702064032005B0BDE8F08F2168DC
:1028400009F0FE000861FFF763FD2168054648694D
:102850004969C0F34000C1F380214FF0A00A0FE0A6
:10286000FFF756FD411B0498814200D808B984F84F
:102870003DA0216848694969C0F34000C1F3802147
:1028800094F83D20A02A02D008B90029E8D084F8A5
:102890003D7020684169C943890716D4016841F435
:1028A000007101602068416980691923012216497D
:1028B0002046009502F0B6FEB8B900E021E084F8A9
:1028C0003D7084F83C600020B6E7016841F4007177
:1028D000016021686FF480604861192301220A4970
:1028E0002046009502F09EFE08B10120A4E703985F
:1028F00008F1010880458AD384F83D7084F83C6073
:10290000F3E7022098E70000020010000000FFFF3C
:1029100070477047704700002DE9F84F0025DDF83B
:102920002890984617468A4604460095FFF7F0FC23
:10293000064694F83D0020287AD1192301228649C1
:102940002046009602F06EFE0028F5D194F83C0077
:1029500001286DD0012084F83C0020680168C90777
:1029600003D1016841F0010101602068016821F490
:1029700000610160222084F83D00102084F83E00B0
:1029800025646762A4F82A80608D20857348E06220
:1029900033464A465146204602F0E8F900287CD1E9
:1029A000208DDFF8BC81202768B1012814D00228CF
:1029B000206801681ED041F480610160206841698F
:1029C00080690090BBE020684169816900910168DD
:1029D00041F400710160B2E02068016821F4806177
:1029E000016072B62068416981690091016841F413
:1029F00000710AE041F40061016072B6206841692B
:102A000081690091016821F48061016062B696E0FD
:102A1000032865D801280CD002284B464FF000024D
:102A20004146204600960BD002F0FCFDA8BB0CE00E
:102A300090E032464946204602F09AFE68BB71E0BB
:102A400002F0F0FD48BB72B633E02068016821F463
:102A50008061016072B620680069616A0870606A0E
:102A6000401C6062208D401E2085608D401E608568
:102A70003C4846F2A8110068B0FBF1F0C0EBC00082
:102A800000EB80000090401E009007D02068406955
:102A9000C04340070DD50098F5E727E044F8305FC4
:102AA0006773A573206940F02000206162B625732A
:102AB0001CE02068016841F4007101602068006931
:102AC000616A0870606A401C6062218D491E218520
:102AD000618D491E618562B621680969017025E032
:102AE00032464946204602F043FE10B10120BDE8BF
:102AF000F88F20680069616A0870606A401C606233
:102B0000208D401E81B22185608D401E6085206829
:102B10004269D243520712D4032903D1016821F438
:102B20008061016020680069616A0870606A401C09
:102B30006062208D401E2085608D401E6085208D46
:102B400000287FF465AF84F83D7084F83E5084F827
:102B50003C50CCE70220CAE7020010000000FFFF53
:102B600004000100780000202DE9F84F1F46904630
:102B70008A460446DDF82890FFF7CAFB054694F81C
:102B80003D0020287FD1192301224049204600958D
:102B900002F048FD002876D194F83C00012872D05C
:102BA000012084F83C0020680168C90703D101684E
:102BB00041F0010101602068016821F400610160B9
:102BC000212084F83D00102084F83E000026266471
:102BD000C4F824806785608D20852D48E0622B46EF
:102BE0004A465146204602F037F990B920684169BB
:102BF0008069009036E02A464946204602F0F0FD02
:102C000050B1206C042804D12068016841F400719F
:102C100001600120BDE8F88F606A216800780861D2
:102C2000606A401C6062618D491E6185218D491E6C
:102C300089B2218522685369DB435B070BD451B10C
:102C400000781061606A401C6062608D401E608583
:102C5000208D401E20852A464946204602F0B6FCBB
:102C60000028CED1208D0028C5D154F83D0B016835
:102C700041F400710160202004F81E09E6776677B0
:102C80000020C7E7FFE70220C4E7000002001000B1
:102C90000000FFFF7047704710B586B0002100911B
:102CA00001910291039100681F4988423AD11FA007
:102CB00003F01EFD254CA06940F00800A061A0694A
:102CC00000F00800049022A003F012FD4FF44060D1
:102CD0000090122001900320039069462448FFF7DA
:102CE00011FA24A003F004FDE06940F48000E061E3
:102CF000E06900F4800004902CA003F0F9FC0022AD
:102D00001146212000F0DAF8212000F0C9F8002255
:102D10001146222000F0D2F8222000F0C1F82AA0AB
:102D200003F0E6FC06B010BD005800405B4445428D
:102D300055475D20493243204D7370496E697420B8
:102D4000737461727465640D0A0000000010024023
:102D50005B44454255475D204750494F4220636CD4
:102D60006F636B20656E61626C65640D0A00000024
:102D7000000C01405B44454255475D2049324320E9
:102D80004750494F20696E697469616C697A65645E
:102D90002028504231303A2053434C2C20504231AD
:102DA000313A20534441290D0A0000005B4445425A
:102DB00055475D2049324320636C6F636B20656E1D
:102DC00061626C65640D0A005B44454255475D20B5
:102DD00049324320696E7465727275707473206530
:102DE0006E61626C65640D0A0000000070477047F8
:102DF0000248816802781144816070476C000020AD
:102E0000074810B5016841F010010160032000F08F
:102E100075F80F2000F006F800F024F8002010BD2F
:102E20000020024070B50D4D04464FF47A712878A9
:102E3000B1FBF0F00A490968B1FBF0F000F09AFB31
:102E400048B9102C07D200222146501E00F036F857
:102E500000206C6070BD012070BD00006C0000207F
:102E6000780000200C4808B5816941F001018161BA
:102E7000816901F001010091C16941F08051C16196
:102E8000C06900F0805000900448416821F0E06182
:102E900041F00071416008BD001002400000014097
:102EA000002809DB00F01F02012191404009800049
:102EB00000F1E020C0F8001170470000F0B40E4BA4
:102EC0001B680C46C3F30223C3F10705042D00D988
:102ED0000425191D072901D2002300E0DB1E01266D
:102EE00006FA05F1491E214099409E40761E164083
:102EF0003143F0BC03F02DBD0CED00E0064900F0BD
:102F0000070208684FF6FF03184040EA0220034A10
:102F100010430860704700000CED00E00000FA0567
:102F20002DE9F0470F46050061D0434E306800F0B0
:102F30000700B84209D2306820F0070038433060FB
:102F4000306800F00700B84251D128683B4C810737
:102F500012D5400703D5606840F4E06060602878CF
:102F6000000703D5606840F4605060606068A9683D
:102F700020F0F000084360602878C00728D0686817
:102F8000012810D02168022810D0890700292EDAE4
:102F9000616821F0030101436160FFF7B9F98046E0
:102FA00041F288390DE021688903EFE78901EDE7F7
:102FB000FFF7AEF9A0EB0801494502D90320BDE8AF
:102FC000F0876068696800F00C00B0EB810FEFD10A
:102FD000306800F00700B8420BD9306820F00700D5
:102FE00038433060306800F00700B84201D001205B
:102FF000E5E72878400705D56068E96820F4E060D7
:10300000084360602878000706D56068296920F4C5
:10301000605040EAC100606000F038F86168084A1A
:10302000C1F30311515CC8400649086006480068B6
:10303000FFF7F8FE0020C2E7002002400010024027
:103040006C8B0008780000207000002004480549BF
:1030500000684968044AC1F30221515CC8407047C6
:1030600078000020001002407C8B000804480549CD
:1030700000684968044AC1F3C221515CC8407047E6
:1030800078000020001002407C8B00080E4A516836
:103090000E4801F00C03042B11D0082B0FD10C4863
:1030A000C1F38343C903C05C0AD55168084AC1F320
:1030B0004041921E515C054A5043B0FBF1F070470D
:1030C00004494843704700000010024000127A0093
:1030D0005C8B000800093D0030B585B000200290EF
:1030E00002200190032003900B4C4FF4807000905D
:1030F000A0690D4640F00400A061A069694600F097
:10310000040004900548FEF7FDFF606820F0E060D1
:103110002843606005B030BD001002400008014047
:103120002DE9F84F040070D02078C04DC00749D079
:103130006868C0F38100012807D06868C0F3810087
:10314000022809D16868C00306D52868800339D5EC
:1031500060680028E7D035E06068B0F5803F0BD0AC
:1031600010B1B0F5A02F11D0286820F4803028606D
:10317000286820F4802002E0286840F4803028602D
:10318000606890B1FFF7C4F806460AE0286840F48A
:1031900080202860F0E700BFFFF7BAF8801B6428A2
:1031A00073D828688003F7D50CE0FFF7B1F806461E
:1031B00005E000BFFFF7ACF8801B6428F0D8286852
:1031C0008003F7D420789A4E80074FF001094FF022
:1031D000000839D5686810F00C0F07D06868C0F394
:1031E0008100022809D16868C00306D428688007D6
:1031F00014D52069012808D110E02069B0B1C6F8C3
:103200000090FFF785F8074605E00AE1FFF780F830
:10321000C01B0228C4D828688007F7D528686169D0
:1032200020F0F80040EAC10028600DE0C6F80080F8
:10323000FFF76EF8074604E0FFF76AF8C01B0228A4
:1032400023D828688007F7D4207800072CD5794840
:10325000A169D9B1C0F80090FFF75AF8074604E019
:10326000FFF756F8C01B02280FD8686A8007F7D509
:1032700071484FF4FA510068B0FBF1F0009000BFC4
:103280000098411E0091FAD20EE080E0C0F8008064
:10329000FFF73EF8074604E0FFF73AF8C01B0228A4
:1032A00075D8686A8007F7D42078400760D5E86948
:1032B0000027C00008D4E86940F08050E861E86960
:1032C000012700F0805000905C480168C90513D4C4
:1032D0000168834641F480710160FFF719F8824666
:1032E00006E000BFFFF714F8A0EB0A0064284ED8F0
:1032F000DBF80000C005F5D5E06801280AD008B168
:10330000052813D0286A20F001002862286A20F0DE
:10331000040002E0286A40F001002862E06841F2FF
:10332000883B98B1FEF7F4FF82460BE0286A40F034
:1033300004002862EEE700BFFEF7EAFFA0EB0A01F7
:1033400059455AD8286A8007F6D50CE0FEF7E0FF09
:10335000824605E0FEF7DCFFA0EB0A0159454CD898
:10336000286A8007F6D41FB1E86920F08050E86130
:10337000E06988B36968C1F38101022944D0022859
:10338000C6F8608004D0FEF7C3FF044638E034E09E
:10339000FEF7BEFF074604E0FEF7BAFFC01B022897
:1033A0002BD828688001F7D4206AB0F5803F05D17A
:1033B0006868A16820F4003008436860D4E9080117
:1033C0000843696821F4741108436860C6F8609086
:1033D000FEF79EFF044606E025E000BFFEF798FFDB
:1033E000001B022809D828688001F7D51BE000BF20
:1033F000FEF78EFF001B022802D90320BDE8F88FDC
:1034000028688001F4D40EE00128F7D06868226AA9
:1034100000F48031914204D1616A00F47010884256
:1034200001D00120EAE70020E8E700000010024098
:1034300000004242800442427800002000700040B8
:1034400070B5040009D0606A002540B1256165614E
:10345000A56294F8510040B10CE0012070BD606895
:10346000B0F5827FF4D0E561F2E784F85050204651
:1034700000F040F8022084F851002068016821F033
:1034800040010160A088218900F4827001F40441A8
:103490000843A18901F400610843217C01F0020185
:1034A0000843217D01F001010843218B01F40071E3
:1034B0000843217F01F03801084394F8201001F0FF
:1034C00080010843218D01F4005108432168086000
:1034D000A069042101EA1040216848602068C169A0
:1034E00021F40061C1616565012084F8510000206C
:1034F00070BD000010B586B00021009101910291CD
:1035000003910068184988422BD11848C16941F4D9
:103510008041C161C16901F480410491816941F038
:10352000080181618069124C00F0080004904FF49A
:103530003040009069462046FEF7E4FD4FF480409D
:103540000090022001900320039069462046FEF778
:10355000D9FD002201212420FFF7B0FC2420FFF731
:103560009FFC06B010BD0000003800400010024073
:10357000000C014010B5401EB0F1807F01D3012046
:1035800010BD4FF0E02460610F21601703F0E1F9F6
:103590000020A06107202061002010BD7047704707
:1035A00070B590F83C20012A2CD0012480F83C40D2
:1035B000022280F83D2003685A689D6822F0700658
:1035C0000A6832435A60104B02689A420ED00F4B81
:1035D0009A420BD0B2F1804F08D00D4B9A4205D0E1
:1035E0000C4B9A4202D00C4B9A4204D1496825F008
:1035F00080031943916080F83D40002180F83C1021
:10360000084670BD022070BD002C0140003401400E
:103610000004004000080040000C004070B5044663
:1036200090F83C000025012817D0012684F83C6062
:10363000022084F83D002068826822F0770222F49C
:103640007F4282600868502838D00DDC20284FD097
:1036500005DC90B3102811D14AE0022070BD30285B
:1036600046D040280AD13BE060282FD070280DD0EA
:10367000B0F5805F03D0B0F5005F12D0012584F86B
:103680003D60002084F83C00284670BDCB68D1E93D
:103690000121206802F09BFD2068816841F07701DC
:1036A00009E0CB68D1E90121206802F090FD206893
:1036B000816841F480418160E1E719E0CA684968A6
:1036C000206802F059FE5021206806E0CA68496867
:1036D000206802F099FE6021206802F082FDCEE7AA
:1036E000CA684968206802F047FE40212068F4E774
:1036F000226801461046F0E77FB50168B1F1804FBE
:1037000063D1017F022960D1304CE16A491CE1623A
:10371000042100F0FEFB0546207830B1E16A05295E
:1037200003D82A462AA002F072FFE06950B1E0688F
:10373000A060E560E068A168884215D9E068A168EA
:10374000401A18E0A560E560E069401CE061FEF702
:10375000DFFDA0612078002837D004B02946BDE8FD
:10376000704027A002F053BFA0684FF6FF71081AFF
:10377000E1680844401C2061206930B1206905F0EF
:1037800093F80146264804F0CDFF6061E069401CD3
:10379000E0612078B0B1E0690A2806D9E0696421C7
:1037A000B0FBF1F201FB120060B9606904F02CFF7C
:1037B000CDE9020120690090A368E268E169194837
:1037C00002F025FFFEF7A4FDA0617FBD00000020F0
:1037D0005B46472044454255475D2043616C6C621F
:1037E00061636B2023256C753A2054494D325F4349
:1037F00048322C2056616C75653D256C750D0A00AC
:103800005B46472044454255475D204669727374C4
:1038100020636170747572653A20256C750D0A001D
:1038200000401C46008F00082DE9F041054690F845
:103830003C0000260C46012810D0012085F83C00F1
:1038400072B1042A1CD0082A2CD00C2A50D0012690
:10385000002085F83C003046BDE8F0810220FBE7FF
:10386000D4E90012E368286802F098FD28688169AD
:1038700021F00C01816128688169A26811430FE081
:10388000D4E90012E368286802F0D0FD2868816955
:1038900021F44061816128688169A26841EA0221BE
:1038A0008161D5E72868D4E9002C277B036A016A87
:1038B00021F480710162C16923F4007321F00301D6
:1038C00041EA0C0121F0F00C39074FF400774CEA83
:1038D000116107EA02221A43C16102622868C169C4
:1038E00021F00C01C1612868C169A26811432BE075
:1038F0002868D4E90021E768036AD0F820C02CF4D6
:10390000805CC0F820C0D0F81CC023F400532CF415
:10391000407C4CEA012121F4704C4FF6FF7101EA22
:1039200007314FF4005741EA0C0107EA02321A430B
:10393000C16102622868C16921F44061C1612868DF
:10394000C169A26841EA0221C16181E710B50400A2
:1039500003D094F83D0010B107E0012010BD002015
:1039600084F83C00204600F01FF8022084F83D0057
:10397000211D206802F0D0FB012084F8460084F865
:103980003E0084F83F0084F8400084F8410084F849
:10399000420084F8430084F8440084F8450084F829
:1039A0003D00002010BD000000B585B00021009151
:1039B0000191029103910068B0F1804F1ED110482F
:1039C000C16941F00101C161C16901F001010491C6
:1039D000816941F0040181618069694600F0040059
:1039E0000490022000900748FEF78CFB0022022181
:1039F0001C20FFF763FA1C20FFF752FA05B000BD48
:103A0000001002400008014030B50446002551B1C5
:103A100004290DD0082910D094F8412094F84500CD
:103A2000012A11D10EE094F83E2094F84200F7E705
:103A300094F83F2094F84300F2E794F8402094F87B
:103A40004400EDE7012801D0012030BD022059B12A
:103A5000042912D0082919D084F8410084F84500BF
:103A60000C293ED001253AE084F83E0084F842005B
:103A70002068C26842F0020210E084F83F0084F837
:103A800043002068C26842F0040207E084F8400066
:103A900084F844002068C26842F00802C260012233
:103AA000206802F087FB1149206888420ED0104937
:103AB00088420BD0B0F1804F08D00E49884205D023
:103AC0000D49884202D00D49884204D1816801F035
:103AD0000701062903D0016841F001010160284671
:103AE00030BD2068C26842F01002D7E7002C0140C8
:103AF000003401400004004000080040000C004079
:103B00002DE9F04104460068C66805694FF00007DA
:103B1000A90713D5B10711D5F91E0161012020773E
:103B2000206880698007204602D0FFF7E5FD04E0A9
:103B300000F0D0F8204600F08FF92777680716D5F7
:103B4000700714D521686FF0040008610220207707
:103B50002068806910F4407F204602D0FFF7CCFD3A
:103B600004E000F0B7F8204600F076F92777280740
:103B700015D5300713D521686FF0080008610420BF
:103B800020772068C0698007204602D0FFF7B4FD87
:103B900004E000F09FF8204600F05EF92777E80681
:103BA00016D5F00614D521686FF0100008610820C2
:103BB00020772068C06910F4407F204602D0FFF7CC
:103BC0009BFD04E000F086F8204600F045F92777D9
:103BD000E80708D0F00706D021686FF001000861FF
:103BE000204600F095F9280608D5300606D521684C
:103BF0006FF0800008612046FFF7D0FC680608D50A
:103C0000700606D521686FF040000861204600F07C
:103C100095F9A8060AD5B00608D521686FF02000EE
:103C200008612046BDE8F041FFF7B9BCBDE8F0816E
:103C300000B585B0002100910191029103911F4BC5
:103C400002681F4802219A4221D1826942F0010292
:103C50008261826902F0010204921A4A536823F4D5
:103C6000406343F0E06343F440635360826942F091
:103C700010028261806900F0100004904FF47070AF
:103C8000CDE900010320039069460F4811E00F4B76
:103C90009A4210D1826942F00802826180690391E0
:103CA00000F0080004904FF44070CDE9000169462F
:103CB0000748FEF727FA05B000BD000000040040E9
:103CC00000100240000001400010014000080040C8
:103CD000000C0140704770B5044690F83C00002687
:103CE0000D4601280FD0012084F83C006AB1042A57
:103CF0001DD0082A2FD00C2A3FD00126002084F89E
:103D00003C00304670BD022070BD206802F072FA9F
:103D10002068816941F0080181612068816921F092
:103D200004018161206881692A69114311E02068DA
:103D300002F090FA2068816941F400618161206895
:103D4000816921F480618161206881692A6941EA81
:103D500002218161D2E7206802F0B2FA2068C169CD
:103D600041F00801C1612068C16921F00401C1610D
:103D70002068C1692A69114311E0206802F0D4FA71
:103D80002068C16941F40061C1612068C16921F402
:103D90008061C1612068C1692A6941EA0221C1616B
:103DA000ACE710B5040003D094F83D0010B107E073
:103DB000012010BD002084F83C00204600F01EF8D1
:103DC000022084F83D00211D206802F0A5F90120A1
:103DD00084F8460084F83E0084F83F0084F84000F0
:103DE00084F8410084F8420084F8430084F84400D9
:103DF00084F8450084F83D00002010BD08B5124A43
:103E000001681248914207D1C16941F00401C161C2
:103E1000C06900F0040009E00D4A914208D1C1696F
:103E200041F00201C161C06900F00200009008BDCC
:103E3000084A9142FBD1816941F400518161806956
:103E400000F40050F2E700000008004000100240BB
:103E500000040040003401407047000010B50446E3
:103E6000022249B104290ED0082913D094F8410048
:103E7000012816D0012010BD94F83E000128F9D188
:103E800084F83E200FE094F83F000128F2D184F836
:103E90003F2008E094F840000128EBD184F840204E
:103EA00001E084F841200122206802F083F91349DF
:103EB0002068134A884201D0904203D1436C43F4F6
:103EC00000434364206888420DD090420BD0B0F18B
:103ED000804F08D00B49884205D00B49884202D058
:103EE0000A49884204D1816801F00701062903D0FC
:103EF000016841F001010160002010BD002C01406B
:103F0000003401400004004000080040000C004064
:103F100070470246002041B1042909D008290AD07F
:103F20000C2901D11068006C70471068406B704715
:103F30001068806B70471068C06B7047704770479F
:103F400070470000F8B5016804460868CA684B6904
:103F500010F00F0F4FF0000559D003F0010602F4E6
:103F60009077374365D0C10705D0D10503D5616C83
:103F700041F001016164410705D5D90703D0616CA7
:103F800041F002016164810705D5D90703D0616C56
:103F900041F004016164010707D502F020013143BB
:103FA00003D0616C41F008016164616C00293AD072
:103FB000800604D5900602D5204602F037FB206823
:103FC0004069616CC0F38010090700D460B32046DB
:103FD00002F0F6FA20684069400621D520681430C6
:103FE00050E8001F21F0400140E80012002AF5D1FE
:103FF000E06BA8B16D494163E06BFDF7C7FF002896
:1040000011D0E06B416B01B0BDE8F040084783067A
:104010000FD593060DD52046BDE8F84002F006BB4B
:104020002046FFF78DFFF8BD2046FFF789FF656446
:10403000F8BD266B2023012E7CD1C6067AD5D60684
:1040400078D508684868009048694FF00206400635
:1040500040D5E16B086840680004000CE8D0A28DF0
:104060008242E5D9E085886920282DD020680C306F
:1040700050E8001F21F4807140E80012002AF5D1B9
:104080002068143050E8001F21F0010140E80012C0
:10409000002AF5D12068143050E8001F21F04001BB
:1040A00040E80012002AF5D184F8423025632068E8
:1040B0000C3050E8001F21F0100140E80012002AE7
:1040C000F5D1E06BFDF73FFF6663A08DE18D401AEF
:1040D00081B22AE0A08DE18D401A81B2E08D0028E6
:1040E000A6D00029A4D022680C3252E8000F20F498
:1040F000907042E80007002FF5D12068143050E896
:10410000002F22F0010240E80027002FF5D184F8AB
:104110004230256320680C3050E8002F22F0100256
:1041200040E80023002BF5D166632046FFF707FF28
:10413000F8BDFFE705062BD5150629D594F84100F3
:104140002128F5D1A068B0F5805F01D12069B0B118
:10415000206A411C2162216800784860E08C401E82
:104160000004000CE084E3D12068C16821F08001E4
:10417000C1602068C16841F04001C160D8E7206A91
:104180000088C0F308004860206A801C2062E5E7D0
:104190004006CDD55006CBD5CA68204622F0400255
:1041A000CA6084F8413000F09FF9C1E7B1650008AA
:1041B00070B5040004D094F84100002510B106E069
:1041C000012070BD84F84050204600F023F82420E0
:1041D00084F841002068C16821F40051C160204684
:1041E00002F096FA2068016921F49041016120688B
:1041F000416921F02A0141612068C16841F4005100
:10420000C1606564202084F8410084F84200656341
:10421000002070BD70B586B0002400940194029413
:1042200003942E4E03682E49022003222D4DB342E3
:1042300026D18B6943F480438B618B6903F48043FF
:1042400004938B6943F004038B618969039201F045
:10425000040104910102CDE9001069462846FDF7EA
:1042600051FF2815CDE90004694628460294FDF760
:1042700049FF002211462520FEF720FE252028E0D8
:10428000194EB34227D1CB6943F40033CB61CB69DC
:1042900003F4003304938B6943F004038B61896951
:1042A000039201F0040104910421CDE90010694654
:1042B0002846FDF727FF0820CDE900046946284677
:1042C0000294FDF71FFF002211462620FEF7F6FD9F
:1042D0002620FEF7E5FD06B070BD00000038014065
:1042E00000100240000801400044004090F84230B5
:1042F000202B01D00220704721B11AB100230363A3
:1043000002F062BA012070472DE9F04700684A497F
:1043100001270025494C88423FD1494E2078305C26
:104320000A2835D0207806F16409305C0D2807D0C2
:104330002078632820782DD335546078F0B126E0BA
:104340002078A04688B198F80110404669B90478F1
:10435000642C00D363243A49224601F16400FCF73F
:10436000D9F909F8045088F8017088F8005098F8D5
:104370000000012231183248903850E03049632261
:1043800001F16400FCF7C6F989F863506770257085
:104390002078EEE7401C2070FAE72A49884248D18D
:1043A000DFF89C80A17808F1C80808F1640918F8C2
:1043B00001000D280DD0A078464618F800000A2804
:1043C00007D0A0786328A0782DD33554E078B0B119
:1043D0001FE0A07878B1E07868B9A678642E00D3A1
:1043E000632617493246C83101F16400FCF792F99F
:1043F00009F80650E770A570A17841440CE0104917
:104400006322C83101F16400FCF784F989F8635034
:10441000E770A570A0783118094801224838BDE836
:10442000F047FFF763BF401CA070A07808EB0001C5
:10443000F2E7BDE8F0870000003801406800002086
:10444000A0040020004400402DE9F843044690F801
:104450004100984616460D46202802D00220BDE8AD
:10446000F88385B17EB100206064212084F841008A
:10447000FDF74EFFA6848146E684A0682027B0F5AC
:10448000805F02D003E00120E9E7206910B12E46E9
:1044900000250EE000260CE08021204602F0AFF956
:1044A000A8B9C6B116F8010B21684860E08C401E1F
:1044B000E084E08C4B464FF00002CDF800800028ED
:1044C000EAD14FF04001204602F099F940B184F85A
:1044D00041700320C3E735F8020BC0F30800E3E79F
:1044E00084F841700020BAE77047C1680068016035
:1044F00000207047FEE700000148FDF711BF0000F3
:104500007C0000200148FDF76DBF00007C0000200A
:1045100038B5406A002190F83D202B4B46F2A81494
:104520001B68B3FBF4F3C3EBC30303EB83030093F8
:104530003BB15B1E009303681B689B0505D5009B80
:10454000F6E7036C43F020030364436B03B1996205
:10455000836B03B1996203681C6824F480641C6057
:104560004185436B03B15963836B03B1596303689E
:104570001C6824F001041C6090F83D402023602C4E
:104580000BD0282434EA02020FD080F83D3080F8A6
:104590003E1000BFFEF73EF838BD80F83D3080F891
:1045A0003E100164FDF7BAFE38BD0268136843F09F
:1045B000010313600268136843F4806313600163AE
:1045C00080F83D40E6E700007800002010B586B096
:1045D00041A002F08DF849A002F08AF8642303227A
:1045E00020215248FEF7DEF808B151A062E05BA03E
:1045F00002F07EF863A002F07BF800248DF81040F2
:1046000004A9204601F068FF08B16CA052E09DF8B3
:10461000101074A001F0FBFF01F0BAFC79A002F0C9
:1046200067F80021052001F095FF0021062001F028
:1046300091FF8DF800408DF804406946052001F097
:104640004BFF01A9062001F047FF9DF804209DF8CB
:10465000001079A001F0DBFF83A002F049F88DF88B
:10466000144005A9112001F037FF08B18AA021E00C
:104670009DF8141091A001F0CAFF98A002F038F83C
:1046800001F064FF08B1A2A014E0ABA002F030F882
:104690000A20FDF717FDB0A002F02AF8ADF80C4093
:1046A00002A903A8029401F0DDFE38B1B4A002F023
:1046B0001FF8BDA002F01CF806B010BD9DF809203F
:1046C0009DF80810C0A001F0A2FFBDF80C10C8A012
:1046D00001F09DFFEDE700000D0A3D3D3D20493210
:1046E0004320436F6D6D756E69636174696F6E20F1
:1046F0004465627567203D3D3D0D0A005B5374655E
:104700007020315D20436865636B696E6720696660
:1047100020544C41323532382069732072657370F1
:104720006F6E64696E672E2E2E0D0A007C000020CD
:104730005B4641494C5D20544C413235323820644F
:104740006576696365206973204E4F5420726573E6
:10475000706F6E64696E670D0A0000005B50415314
:10476000535D20544C41323532382064657669639C
:104770006520697320726573706F6E64696E670D72
:104780000A0000000D0A5B5374657020325D2052F0
:10479000656164696E672053595354454D5F5354A6
:1047A00041545553207265676973746572202830CF
:1047B000783030292E2E2E0D0A0000005B4641492C
:1047C0004C5D204661696C656420746F2072656180
:1047D000642053595354454D5F5354415455530D20
:1047E0000A0000005B504153535D20535953544518
:1047F0004D5F535441545553203D2030782530327D
:10480000580D0A000D0A5B5374657020335D204318
:104810006F6E6669677572696E6720616C6C207077
:10482000696E7320746F20414443206D6F64652E60
:104830002E2E0D0A000000005B504153535D2050A6
:10484000494E5F434647204C4F57203D2030782546
:104850003032582C2048494748203D2030782530B8
:1048600032580D0A000000000D0A5B537465702079
:10487000345D2052656164696E67204348414E4E45
:10488000454C5F53454C2072656769737465722EA1
:104890002E2E0D0A000000005B4641494C5D20466B
:1048A00061696C656420746F20726561642043489F
:1048B000414E4E454C5F53454C0D0A005B504153F1
:1048C000535D204348414E4E454C5F53454C203D7F
:1048D000203078253032580D0A0000000D0A5B5355
:1048E00074657020355D2054726967676572696E02
:1048F000672041444320636F6E76657273696F6E03
:104900002076696120434E5653542E2E2E0D0A00F8
:104910005B4641494C5D204661696C656420746F5B
:10492000207472696767657220636F6E7665727353
:10493000696F6E0D0A0000005B504153535D2043C8
:104940006F6E76657273696F6E20747269676765E2
:104950007265640D0A0000000D0A5B5374657020D7
:10496000365D2052656164696E672041444320646E
:10497000617461206672616D652E2E2E0D0A000035
:104980005B4641494C5D204661696C656420746FEB
:104990002072656164204144432064617461206633
:1049A00072616D650D0A00000D0A3D3D3D204465B4
:1049B000627567205465737420436F6D706C657405
:1049C00065203D3D3D0D0A005B504153535D205233
:1049D00061772062797465733A205B3078253032D4
:1049E000582C203078253032585D0D0A0000000028
:1049F0005B504153535D204144432076616C7565A3
:104A00003A2025750D0A000000684169C94309066E
:104A100001D400210161704770B5044690F83D0053
:104A200094F83E10102901D0402906D1222804D143
:104A300021680A6822F400620A60282131EA000233
:104A40004FF000054FF0200626D02168496809057F
:104A500005D4602803D084F83D6084F83E50256377
:104A600020684168090537D5416821F4006141603B
:104A7000606B90F821203C49012A11D04163606BA2
:104A8000FDF784FA38B32068016821F00101016064
:104A900084F83D60606B1CE0256384F83D10DFE71F
:104AA000A06B4163A06BFDF771FAA0B1206841696A
:104AB000C943490605D40069616A0870606A401CF0
:104AC00060622068016821F00101016084F83D60A6
:104AD000A06B416B884710E094F83D10602910D01E
:104AE0004169C943490605D40069616A0870606A72
:104AF000401C60622046FDF78DFD206CC1071CD173
:104B000015E084F83D6025644169C943490605D430
:104B10000069616A0870606A401C60622068016810
:104B200021F0010101602046FDF7F8FBE5E7810770
:104B300003D4410701D4000704D52068416821F45B
:104B4000E061416094F83D00216C49070BD52828AD
:104B500009D10648E062256384F83D6084F83E5040
:104B60002046FDF7D5FE70BD114500080000FFFF8F
:104B700001684A69D24352050FD46FF480624A61DA
:104B8000002140F8301F202242738173026942F0F5
:104B9000040202610173012070470020704710B5C4
:104BA000C26A438D0168042B06D0438D032B08D0C5
:104BB000438D022B1DD012E04A6822F480624A60C5
:104BC0000CE04B6823F480634B60042A06D0022A71
:104BD00004D001680A6822F480620A6001680969E9
:104BE000426A1170416A491C4162418D491E4185EA
:104BF00010BD012A34D0102A32D0042A34D0022A1F
:104C000032D00B6843F400730B6001680969436A92
:104C10001970416A491C4162438D5B1E43850368DC
:104C20001B690B70416A491C4162418D491E4185D7
:104C300001684B6823F440734B60202180F83D10DD
:104C400090F83E300021402B80F83E1010D0082A0A
:104C500002D0202A00D012210163FDF75AFE10BDB8
:104C60000B6823F48063CFE70B6843F48063CBE7E2
:104C70000163FEF70FF810BD38B590F83D102229FA
:104C800010D1C36A418D03290DD901680969426AAF
:104C90001170416A491C4162418D491E4185418D17
:104CA000032906D038BDC26A022A02D0012906D0E3
:104CB00029B10068416821F48061416038BD2A4A09
:104CC00046F2A81400211268B2FBF4F202EB820251
:104CD000009202682024009D6D1E009526D0156864
:104CE000AD05F8D4156825F480651560026855682F
:104CF00025F4E065556002681269456A2A70426AC7
:104D0000521C4262428D521E428580F83D4090F80E
:104D10003E2080F83E10402A21D0082B02D0202BC4
:104D200000D012210163FDF7F4FD38BD036C43F0A0
:104D300020030364536823F4E0635360026812693C
:104D4000436A1A70426A521C4262428D521E428568
:104D500080F83D4080F83E10FDF75CFC38BD0163F3
:104D6000FDF798FF38BD0000780000202DE9F84FCE
:104D70000446C06A1E4693460D4621680A6842F4FE
:104D800080620A60082807D0012805D010F5803F0E
:104D900002D0206B112804D12068016841F4807191
:104DA00001604FF001195B460022494620460096FB
:104DB00000F038FC4FF4007840B120680068C0056E
:104DC00001D5C4F840800320BDE8F88F2069DFF8E2
:104DD00084A0B0F5804F0FD00620216800EAD517D7
:104DE00047F0F000086133465A460AF106012046B2
:104DF00000F060FC58BB03E0E8B240F001001CE0AA
:104E00002168E8B2086133465A465146204600F010
:104E100051FCE0B92068416981690091016841F461
:104E2000807101605B46002249462046009600F0F2
:104E3000F9FB0028C1D147F0F10021680861334631
:104E40005A465146204600F035FC0028BCD00120CF
:104E5000BAE7000002000100F8B50446C06A1E4629
:104E60000D461746082807D0012805D010F5803FC9
:104E700002D0206B122804D12068016841F48071AF
:104E80000160134600224FF001112046009600F009
:104E9000C9FB40B120680068C00502D54FF400701E
:104EA00020640320F8BD2069B0F5804F0ED00620A5
:104EB000216800EAD51040F0F000086133463A4618
:104EC0000B49204600F0F6FB78B902E005F0FE0041
:104ED00000E0E8B221680861054933463A46891F77
:104EE000204600F0E7FB0028DCD00120F8BD0000E0
:104EF0000800010010B5C26A90F83D1021290BD1BD
:104F0000418D51B1416A026809781161416A491CB9
:104F10004162418D491E418510BD20230021082A90
:104F200013D0202A11D012F5803F0ED002685468A9
:104F300024F4E06454601122026380F83E1080F88B
:104F40003D3000BFFDF7E6FC10BD0268546824F454
:104F5000E06454600268146844F4007414600163EF
:104F600080F83D3090F83E2080F83E10402AE9D18C
:104F7000FDF791FE10BD000010B590F83D1090F8BF
:104F80003E30C26A048DB4B1212903D0402B11D127
:104F900022290FD1418DE1B390F83E10402942D033
:104FA000416A026809781161416A491C4162418D78
:104FB000491E418510BD2129E8D120230021082A5E
:104FC00013D0202A11D012F5803F0ED00268546809
:104FD00024F4E06454601122026380F83E1080F8EB
:104FE0003D3000BFFDF796FC10BD0268546824F404
:104FF000E06454600268146844F40074146001634F
:1050000080F83D3090F83E2080F83E10402AE9D1EB
:1050100000E002E0FDF73FFE10BD0068416821F4AA
:105020008061416010BDBDE8104000F0F3B80000A1
:1050300078B590F83E50C26A046B90F83D6000234A
:105040000168222E73D1066D0EB9402D6FD0056D0B
:105050001DB90569B5F5404F1BD0458D95B3468DFB
:10506000484D012E20D0448D022C4DD00C6844F4C4
:1050700080640C6001684C68240579D5AA4273D01D
:10508000012A71D0082A6FD0102A6DD0202A6BD047
:105090006EE04A698A6900920A6842F480720A6086
:1050A000016D491C016578BDAA4214D10A6822F439
:1050B00080620A6001684A68120504D50A6822F411
:1050C000806217E0FFE74A698A6900920A6842F441
:1050D00000720A6050E0082A10D0202A0ED0122C4C
:1050E0000AD0042A03D0022A01D0102AE6D10A6885
:1050F00042F480620A603BE0012ADFD00A6822F4B1
:1051000080620A600168DEE7042A11D0022A0FD00B
:10511000102A0DD00C6844F400640C6001684C69DE
:105120008C6900940C6824F480640C6008E025E02D
:105130000C6844F480640C6001684C6989690091D2
:1051400001684C68240517D5AA4207D0012A05D06A
:10515000082A03D0102A01D0202A0DD14A6842F42F
:1051600080524A6008E0FFE74A6842F480524A6091
:1051700001684A6989690091036578BD4869886951
:10518000009078BD0000FFFF90F83E10402910D03D
:105190000169B1F5804F19D0016DA9B3016D0129E5
:1051A00010D1416C5FF0F10201F4407142EAD1117B
:1051B00006E0016D0029416C05D0C9B241F0010142
:1051C00000680161704701F0FE01F9E790F83D10B9
:1051D0002129416C09D0C9B241F001010268116175
:1051E000416B29B1896A49B902E001F0FE01F5E796
:1051F000816B0029E6D0896A0029E3D00068416804
:1052000041F4006141607047FFE7416CF02201F416
:105210004071CBE710B590F83D10026D4AB1026DB8
:10522000012A14D0026D022A16D0BDE81040FFF703
:10523000EBBBC16C0129816C02D0C1F3072108E0EE
:105240000268C9B21161016D891C016510BD816CD4
:10525000C9B20268116123E022291CD0428D0AB133
:10526000212920D0428D002AF0D12129EED10168D8
:105270004A6822F4E0624A6001680A6842F40072F7
:105280000A6000210163202280F83D2080F83E1052
:10529000FDF701FD10BD01680A6842F480720A60E2
:1052A000016D491CD1E7416A026809781161416AC0
:1052B000491C4162418D491E418510BD10B5212315
:1052C0002022102108A001F0A2F96423032220214A
:1052D0001348FDF767FA20B112A0BDE8104001F0B5
:1052E00007BA1FA0F9E70000544C4132353238208C
:1052F000372D6269743A203078253032582C205787
:10530000726974653A203078253032582C20526505
:1053100061643A203078253032580D0A00000000D0
:105320007C0000205B4641494C5D20544C413235A5
:10533000323820646576696365206E6F7420646519
:105340007465637465642061742065787065637446
:10535000656420616464726573730D0A0000000067
:105360005B504153535D20544C41323532382064F8
:10537000657669636520646574656374656420613E
:105380007420657870656374656420616464726517
:1053900073730D0A0000000038B50C4690F83D20EC
:1053A00000212825954302680B4605D05169916973
:1053B000009180F83C3038BD556825F48065556013
:1053C000E243540700D50121120601D5828900E08D
:1053D000028B80F83C3092B2FCF7A1FF38BD000090
:1053E0002DE9F04190F83D300446C26A00212026A4
:1053F0001E4F00686FF48065082A01D0202A01D171
:10540000282B04D0212B17D04561BDE8F081E7623D
:10541000426822F4E06242602068456120680268C8
:1054200022F480620260216384F83D6084F83E10BB
:105430002046FDF76DFAE8E7E7622122226384F84F
:105440003D6084F83E10416821F4E06141602068CD
:1054500045612068016821F4806101602046FFF702
:10546000D3FA2046FDF7C3FCCFE700000000FFFFA2
:10547000F8B590F83D6004460068416821F4E061A9
:1054800041602068002541690091016841F00101F7
:1054900001602068016821F4806101602068416832
:1054A000090520D5474F222E48D02A2E46D0616BC1
:1054B000096849686185618D19B1216C41F0040169
:1054C0002164416821F400614160606BFCF7F6FDE6
:1054D000012808D0606B4763606BFCF757FD10B183
:1054E000606B416B8847608D08B320684169C94390
:1054F000490708D40069616A0870606A401C6062EC
:10550000608D401E608520684169C943490608D402
:105510000069616A0870606A401C6062608D401EAC
:105520006085608D18B1206C40F004002064206C10
:1055300000B32046BDE8F840FFF76EBAA16B0968DA
:1055400049686185618D19B1216C41F004012164C4
:10555000416821F400614160A06BFCF7AFFD0128B8
:10556000C1D0A06B4763A06BFCF710FD0028BAD038
:10557000A06BB6E72A2E06D12563282084F83D00CB
:105580002046FDF733FC94F83D10202028290DD04B
:10559000216B222901D0222E07D1256384F83D00FA
:1055A00084F83E502046FDF721FCF8BD0649E16233
:1055B000256384F83D0084F83E502046FDF7A8F9A5
:1055C000F8BD0000114500080000FFFF70B5164649
:1055D0000D4604461EE02046FFF7CAFA08B1012036
:1055E00070BD681C16D0FCF793FE801BA84200D843
:1055F00085B920684069C04340070BD5002044F8B6
:10560000300F20216173A073216941F020012161D5
:105610002073E4E720684069C0434007DBD40020E2
:1056200070BD00002DE9F047984617460D46044628
:10563000C1F30746DDF820902AE000BFB8F1FF3F34
:1056400026D0FCF765FEA0EB0901414502D8B8F170
:10565000000F1DD12068012E16D0806925EA0000B8
:105660000004000C12D00020B84211D1002044F8F0
:10567000300F20216173A073216941F02001216165
:1056800020730120BDE8F0874069E7E70120EBE7E0
:105690002068012E0AD0806925EA00000004000C71
:1056A00006D00020B842C9D00020EBE74069F3E7FC
:1056B0000120F7E72DE9F047984616460D460446C7
:1056C0004FF000094FF0200AC1F3074723E020689C
:1056D0004069C043400515D42068016841F4007159
:1056E000016021686FF480604861C4F8309084F8EC
:1056F0003DA084F83E90216C41F00401216484F8BF
:105700003C9021E0701C06D0FCF702FEA0EB0800E4
:10571000B04203D816B1012F1FD021E02068012F1D
:1057200015D0806925EA00000004000C18D000BFE5
:1057300044F8309F84F80DA084F80E90216941F060
:105740002001216184F80C900120BDE8F0874069B8
:1057500025EA00000004000CEAD12068406901E05D
:105760002068806925EA00000004000CAFD1ECE756
:105770002DE9F041002590460E460446202728E0FA
:105780004069C043C0060CD454F8301B6FF01000C1
:10579000486144F810596777A577206A2062257719
:1057A00014E0FCF7B5FDA0EB0800B04200D886B9C4
:1057B00020684069C04340060BD544F8305F6773EA
:1057C000A573206940F02000206125730120BDE809
:1057D000F08120684169C9434906D1D40020F6E729
:1057E00070B516460D4604461EE02046FFF7C0F988
:1057F00008B1012070BD681C16D0FCF789FD801B24
:10580000A84200D885B920684069C04300060BD57E
:10581000002044F8300F20216173A073216941F00A
:10582000200121612073E4E720684069C04300063D
:10583000DBD4002070BD00002DE9F0411C46069F1E
:1058400015460E4608B1012200E00022DFF8548020
:105850004FF400614046FCF756FD0EB1012200E016
:1058600000224FF480514046FCF74DFD0DB101225E
:1058700000E000220C4D08212846FCF744FD0CB145
:10588000012200E0002210212846FCF73CFD0FB168
:10589000012200E000222846BDE8F0412021FCF76B
:1058A00032BD000000080140000C01402DE9F04F1E
:1058B00085B00024354800940194029403948169D2
:1058C00041F020018161816901F020010491816929
:1058D00041F004018161816901F004010491816951
:1058E00041F010018161816901F010010491816929
:1058F00041F0080181618069DFF8949000F00800B0
:105900000490002220214846FCF7FDFCDFF884A02B
:105910004FF4C057002239465046FCF7F4FC4FF4D0
:105920000048002241465046FCF7EDFCDFF868B025
:10593000002238215846FCF7E6FC202001250226EB
:10594000CDE90005CDE9024669464846FCF7DAFB99
:1059500000970396CDE9015469465046FCF7D2FB07
:10596000CDF800800396CDE9015469465046FCF716
:10597000C9FB3820CDE90005CDE902466946584605
:10598000FCF7C0FB05B0BDE8F08F0000001002403E
:105990000010014000080140000C014000B591B02A
:1059A00019A000F0A5FE21481F494CF25032C0E971
:1059B000001200214FF480438160C0E9031341616C
:1059C0008161C16101621AA16846FAF7A7FC6846C5
:1059D00000F08EFE1548FCF721FE20B11CA000F05F
:1059E00087FEFCF7AEFA23A000F082FE0F48FCF71A
:1059F00012FE024629A16846FAF790FC684600F0BC
:105A000077FE11B000BD00005B44454255475D2064
:105A1000496E697469616C697A696E6720493243BD
:105A20002E2E2E0D0A000000005800407C000020A1
:105A30005B44454255475D2049324320436C6F63C8
:105A40006B53706565643A20256420487A0D0A001E
:105A50005B44454255475D2049324320696E697475
:105A600069616C697A6174696F6E206661696C65E1
:105A7000640D0A005B44454255475D20493243208E
:105A8000696E697469616C697A6174696F6E20739B
:105A900075636365737366756C0D0A005B444542FC
:105AA00055475D2049324320537461746520616617
:105AB00074657220696E69743A2025640D0A0000CD
:105AC0000D4810B50B490160002141608160C16043
:105AD0000161416181610162416281620A21C162A9
