:020000040800F2
:1000000080100020CD0100089F2D00082F2100083E
:100010009D2D0008530400089938000800000000D6
:10002000000000000000000000000000D5310008C2
:100030005504000800000000A12D0008D731000879
:10004000E7010008E7010008E7010008E7010008F0
:10005000E7010008E7010008E7010008E7010008E0
:10006000E7010008E7010008E7010008E7010008D0
:10007000E7010008E7010008E7010008E7010008C0
:10008000E7010008E7010008E7010008E7010008B0
:10009000E7010008E7010008E7010008E7010008A0
:1000A000E7010008E7010008E7010008E701000890
:1000B000E70100083D320008E70100083D21000883
:1000C000312100085521000849210008E7010008F6
:1000D000E70100088D380008E7010008E701000883
:1000E000E7010008E7010008E701000849320008BD
:1000F0006D3200086132000855320008E70100083F
:10010000E7010008E7010008E7010008E70100082F
:10011000E7010008E7010008E7010008E70100081F
:10012000E7010008E7010008E7010008E70100080F
:1001300000F002F800F03AF80AA090E8000C8244BF
:100140008344AAF10107DA4501D100F02FF8AFF29C
:10015000090EBAE80F0013F0010F18BFFB1A43F0A5
:10016000010318472839000048390000103A24BF1D
:1001700078C878C1FAD8520724BF30C830C144BF0C
:1001800004680C607047000000230024002500264E
:10019000103A28BF78C1FBD8520728BF30C148BFEA
:1001A0000B6070471FB51FBD10B510BD00F018F9EA
:1001B0001146FFF7F7FF03F081FB00F036F903B4B7
:1001C000FFF7F2FF03BC00F03DF90000094880474B
:1001D00009480047FEE7FEE7FEE7FEE7FEE7FEE729
:1001E000FEE7FEE7FEE7FEE704480549054A064B41
:1001F000704700003932000831010008800A0020F1
:1002000080100020800C0020800C002010B5431CC2
:1002100002E010F8011B71B18107FAD14FF00132F1
:1002200002C88C1A8C4314EAC211F9D0C01A0A060B
:1002300003D0C01E10BDC01A10BD0A0401D0801E1C
:1002400010BD0902FCD0401E10BD032A40F23080D0
:1002500010F0030C00F0158011F8013BBCF1020F07
:10026000624498BF11F801CB00F8013B38BF11F888
:10027000013BA2F1040298BF00F801CB38BF00F89F
:10028000013B11F0030300F07980083AC0F00880C8
:1002900051F8043B083A51F804CBA0E80810F5E700
:1002A000121D5CBF51F8043B40F8043BAFF30080E3
:1002B000D20724BF11F8013B11F801CB48BF11F858
:1002C000012B24BF00F8013B00F801CB48BF00F828
:1002D000012B704702F0FF0343EA032242EA024285
:1002E00000F002B84FF000020429C0F0128010F0B4
:1002F000030C00F01B80CCF1040CBCF1020F18BF02
:1003000000F8012BA8BF20F8022BA1EB0C0100F094
:100310000DB85FEAC17C24BF00F8012B00F8012B67
:1003200048BF00F8012B70474FF0000200B513469C
:1003300094469646203922BFA0E80C50A0E80C5005
:10034000B1F12001BFF4F7AF090728BFA0E80C50B6
:1003500048BF0CC05DF804EB890028BF40F8042BAF
:1003600008BF704748BF20F8022B11F0804F18BF1C
:1003700000F8012B704770477047704710B5203A5E
:10038000C0F00B80B1E81850203AA0E81850B1E84E
:100390001850A0E81850BFF4F5AF5FEA027C24BF04
:1003A000B1E81850A0E8185044BF18C918C0BDE8FB
:1003B00010405FEA827C24BF51F8043B40F8043BC4
:1003C00008BF7047D20728BF31F8023B48BF11F879
:1003D000012B28BF20F8023B48BF00F8012B7047D3
:1003E000754600F02BF8AE4605006946534620F0EE
:1003F0000700854618B020B5FFF7F6FEBDE820409F
:100400004FF000064FF000074FF000084FF0000BD0
:1004100021F00701AC46ACE8C009ACE8C009ACE883
:10042000C009ACE8C0098D46704710B50446AFF36B
:1004300000802046BDE81040FFF7C1BE004870476D
:10044000200A002001491820ABBEFEE7260002006A
:100450007047FEE7704772B6FEE710B590F82110BE
:100460000022022905D00421816380F82020012088
:1004700010BD01680B6823F00E030B6001680B6868
:1004800023F001030B6090F84030C46B012101FAA6
:1004900003F3636080F8211080F82020104610BD1F
:1004A0002DE9F05F90F821100024022903D00421E7
:1004B0008163012485E001680A6822F00E020A6067
:1004C00001680A6822F001020A603F4E3E4FB215F1
:1004D000DFF8F4C0DFF8F090DFF8ECA0DFF8E8B068
:1004E000DFF8E4E00168783F13011502ACF1640C19
:1004F000A9F15009AAF13C0AABF1280BAEF1140E98
:100500004FF48018B14227D9B9420ED0614512D0BC
:1005100049451DD0514518D0594518D0714501D1D4
:10052000424615E0294EB14201D1012210E0274E8A
:100530001436B14201D110220AE0244E2836B142CD
:1005400006D0224A3C32914201D11A4600E02A46A6
:100550001E49091F0A602BE0B94213D0614517D02C
:10056000494522D051451DD059451DD0714501D175
:1005700042461AE0B14202D14FF0807215E0134EAC
:10058000B14201D1012210E0104E1436B14201D126
:1005900010220AE00D4E2836B14206D00B4A3C32FA
:1005A000914201D11A4600E02A46074980394A6043
:1005B000012180F82110002180F82010416B01B149
:1005C00088472046BDE8F09F8000024008040240B2
:1005D00090F82100704700002DE9F84FDFF8C8912E
:1005E0000024A9F1040B23460F2709F1040AABF1FB
:1005F000040ED1E00125A54006EA0502AA4276D103
:10060000DFF8A8C14E68A6EB0C0866452BD00DDCC0
:10061000032E34D005DC36B3012E19D0022E2FD193
:100620001BE0112E16D0122E2AD119E0B8F5881F22
:1006300019D006DCB8F5803F15D0B8F5801F1FD162
:1006400011E0B8F5001F0ED0B8F5041F18D10AE06C
:10065000CB6815E0CB681B1D12E0CB6808330FE0B8
:10066000CB680C330CE08B682BB1012B4FF00803E7
:1006700003D0456104E0042302E0056100E00023AB
:10068000FF2A01D8064601E000F104064FEA84057E
:1006900001D9A5F12005D6F8008007FA05FC28EA63
:1006A0000C0803FA05F548EA0508C6F800804D680D
:1006B000ED0070D53E4DAE6946F00106AE61AD6904
:1006C00024F0030605F0010500953A4D06EB050CF4
:1006D000DCF80850A607360F07FA06F825EA0805E1
:1006E000DFF8D480404503D14FF0000825E052E008
:1006F000DFF8C880404502D14FF001081DE0DFF867
:10070000C080404502D14FF0020816E0DFF8B48007
:10071000404502D14FF003080FE0DFF8AC804045C0
:1007200002D14FF0040808E0DFF8A080404502D174
:100730004FF0050801E04FF0060808FA06F848EA0D
:100740000508CCF808804D68D9F80060ED024D46E8
:1007500001D5164300E096432E604D68DAF800603C
:10076000AD02554601D5164300E096432E604D6814
:10077000DBF80060AD035D4601D5164300E096430B
:100780002E604D68DEF80060ED03754601D5164316
:1007900000E096432E60641C0A681646E2407FF42F
:1007A00029AFBDE8F88F00000804014000001110D7
:1007B000001002400000014000080140000C014010
:1007C000001001400014014000180140001C0140CD
:1007D0000AB1016170470904FBE700000148806825
:1007E0007047000014000020704770472DE9F04169
:1007F000016804464A694E6890F83E000025D743D8
:10080000FA050BD4F243D20508D46FF480720125A7
:100810004A6121680A6842F400420A60B90508D4B6
:10082000F143C90505D422686FF4007145F0020553
:100830005161790525D4F143C90522D4638D94F81B
:100840003D10226B202808D13BB9212910D029293D
:100850000ED0282901D1212A0AD022686FF48061A4
:10086000516145F00405102806D0402804D008E066
:10087000204602F077F804E02068016841F4007136
:100880000160380508D4F043C00505D421686FF431
:10089000006045F008054861002D07D0206C284312
:1008A00020642046BDE8F04101F0C0BCBDE8F08105
:1008B0002DE9F047026800215368C66A90F83E406F
:1008C00090F83D50102C12D0402C10D0046C002C0D
:1008D0007DD05469E443A6077AD4DE43B60577D4C5
:1008E000036C03B19169BDE8F04702F017B897694E
:1008F00051694FF42A0CC9435FEAC1784FF02A4985
:1009000004D066452AD04E4528D010E0DE43B60517
:100910000DD4C16A614501D1012103E0C16A494595
:1009200001D10821C162BDE8F04701F05DBF0E07AB
:1009300016D4DE43B60513D4416CC9B21161416BC4
:1009400009B1896A29B9816B002907D0896A002910
:1009500004D00068416841F400614160BDE8F0875F
:100960008E0706D4DE43B60503D4BDE8F04701F098
:100970008FBEFE43526876074FEA02521DD4002A0A
:10098000ECDB0A0608D4DA43520505D4490705D53D
:10099000BDE8F04701F020BE4907DFD4D9438905FF
:1009A000DCD4212D05D0402CD8D1BDE8F04701F092
:1009B00061BFBDE8F04701F0CDBD002ACEDB4A069D
:1009C0000BD4DA43520508D4490708D501E00DE0FD
:1009D0000EE0BDE8F04701F043BD4907BED4D9435E
:1009E0008905BBD4BDE8F04701F0CCBC916970E744
:1009F000E10606D4D943890503D4BDE8F04701F0E8
:100A0000F9BF2821212D27D0292D25D0650655D4C1
:100A1000DD436D0552D4640752D590F83D30448DC6
:100A2000002C9BD01269446A2270426A521C4262B6
:100A3000428D521E4285428D002A8FD12A2B8DD1A4
:100A40000268536823F4806353602222026380F8B3
:100A50003D1000F04BF881E7250623D4DD436D05FA
:100A600020D4640720D590F83D30448D002CF2D07E
:100A7000446A24781461426A521C4262428D521EBA
:100A80004285428D002AE6D1292BE4D102685368C1
:100A900023F4806353602122026380F83D1000F04C
:100AA00026F85BE76107D6D4D9438905D3D4418DB5
:100AB0000029D0D0416A097811610AE06107CAD4DF
:100AC000D9438905C7D4418D0029C4D01169426A30
:100AD0001170416A491C4162418D491E41853DE7C3
:100AE000704770477047704770477047704770474E
:100AF0000248816802781144816070471400002028
:100B0000074810B5016841F010010160032000F0B2
:100B100075F80F2000F006F800F024F8002010BD52
:100B20000020024070B50D4D04464FF47A712878CC
:100B3000B1FBF0F00A490968B1FBF0F000F0E5FD07
:100B400048B9102C07D200222146501E00F036F87A
:100B500000206C6070BD012070BD000014000020FA
:100B6000200000200C4808B5816941F00101816135
:100B7000816901F001010091C16941F08051C161B9
:100B8000C06900F0805000900448416821F0E061A5
:100B900041F00071416008BD0010024000000140BA
:100BA000002809DB00F01F0201219140400980006C
:100BB00000F1E020C0F8001170470000F0B40E4BC7
:100BC0001B680C46C3F30223C3F10705042D00D9AB
:100BD0000425191D072901D2002300E0DB1E012690
:100BE00006FA05F1491E214099409E40761E1640A6
:100BF0003143F0BC02F051BE0CED00E0064900F0BC
:100C0000070208684FF6FF03184040EA0220034A33
:100C100010430860704700000CED00E00000FA058A
:100C20002DE9F0470F46050061D0434E306800F0D3
:100C30000700B84209D2306820F00700384330601E
:100C4000306800F00700B84251D128683B4C81075A
:100C500012D5400703D5606840F4E06060602878F2
:100C6000000703D5606840F4605060606068A96860
:100C700020F0F000084360602878C00728D068683A
:100C8000012810D02168022810D0890700292EDA07
:100C9000616821F0030101436160FFF79FFD804619
:100CA00041F288390DE021688903EFE78901EDE71A
:100CB000FFF794FDA0EB0801494502D90320BDE8E8
:100CC000F0876068696800F00C00B0EB810FEFD12D
:100CD000306800F00700B8420BD9306820F00700F8
:100CE00038433060306800F00700B84201D001207E
:100CF000E5E72878400705D56068E96820F4E060FA
:100D0000084360602878000706D56068296920F4E8
:100D1000605040EAC100606000F038F86168084A3D
:100D2000C1F30311515CC8400649086006480068D9
:100D3000FFF7F8FE0020C2E700200240001002404A
:100D4000723A0008200000201800002004480549DD
:100D500000684968044AC1F30221515CC8407047E9
:100D60002000002000100240823A00080448054993
:100D700000684968044AC1F3C221515CC840704709
:100D80002000002000100240823A00080E4A5168FC
:100D90000E4801F00C03042B11D0082B0FD10C4886
:100DA000C1F38343C903C05C0AD55168084AC1F343
:100DB0004041921E515C054A5043B0FBF1F0704730
:100DC00004494843704700000010024000127A00B6
:100DD000623A000800093D0030B585B0002002905D
:100DE00002200190032003900B4C4FF48070009080
:100DF000A0690D4640F00400A061A069694600F0BA
:100E0000040004900548FFF7E7FB606820F0E0600D
:100E10002843606005B030BD00100240000801406A
:100E20002DE9F84F040070D02078C04DC00749D09C
:100E30006868C0F38100012807D06868C0F38100AA
:100E4000022809D16868C00306D52868800339D50F
:100E500060680028E7D035E06068B0F5803F0BD0CF
:100E600010B1B0F5A02F11D0286820F48030286090
:100E7000286820F4802002E0286840F48030286050
:100E8000606890B1FFF7AAFC06460AE0286840F4C3
:100E900080202860F0E700BFFFF7A0FC801B6428DB
:100EA00073D828688003F7D50CE0FFF797FC064657
:100EB00005E000BFFFF792FC801B6428F0D828688B
:100EC0008003F7D420789A4E80074FF001094FF045
:100ED000000839D5686810F00C0F07D06868C0F3B7
:100EE0008100022809D16868C00306D428688007F9
:100EF00014D52069012808D110E02069B0B1C6F8E6
:100F00000090FFF76BFC074605E00AE1FFF766FC7F
:100F1000C01B0228C4D828688007F7D528686169F3
:100F200020F0F80040EAC10028600DE0C6F800801B
:100F3000FFF754FC074604E0FFF750FCC01B0228F3
:100F400023D828688007F7D4207800072CD5794863
:100F5000A169D9B1C0F80090FFF740FC074604E052
:100F6000FFF73CFCC01B02280FD8686A8007F7D542
:100F700071484FF4FA510068B0FBF1F0009000BFE7
:100F80000098411E0091FAD20EE080E0C0F8008087
:100F9000FFF724FC074604E0FFF720FCC01B0228F3
:100FA00075D8686A8007F7D42078400760D5E8696B
:100FB0000027C00008D4E86940F08050E861E86983
:100FC000012700F0805000905C480168C90513D4E7
:100FD0000168834641F480710160FFF7FFFB8246A0
:100FE00006E000BFFFF7FAFBA0EB0A0064284ED82A
:100FF000DBF80000C005F5D5E06801280AD008B18B
:10100000052813D0286A20F001002862286A20F001
:10101000040002E0286A40F001002862E06841F222
:10102000883B98B1FFF7DAFB82460BE0286A40F074
:1010300004002862EEE700BFFFF7D0FBA0EB0A0137
:1010400059455AD8286A8007F6D50CE0FFF7C6FB49
:10105000824605E0FFF7C2FBA0EB0A0159454CD8D8
:10106000286A8007F6D41FB1E86920F08050E86153
:10107000E06988B36968C1F38101022944D002287C
:10108000C6F8608004D0FFF7A9FB044638E034E0DE
:10109000FFF7A4FB074604E0FFF7A0FBC01B0228F4
:1010A0002BD828688001F7D4206AB0F5803F05D19D
:1010B0006868A16820F4003008436860D4E908013A
:1010C0000843696821F4741108436860C6F86090A9
:1010D000FFF784FB044606E025E000BFFFF77EFB38
:1010E000001B022809D828688001F7D51BE000BF43
:1010F000FFF774FB001B022802D90320BDE8F88F1C
:1011000028688001F4D40EE00128F7D06868226ACC
:1011100000F48031914204D1616A00F47010884279
:1011200001D00120EAE70020E8E7000000100240BB
:101130000000424280044242200000200070004033
:101140002DE9FC410446434845F6C051002600689D
:10115000B0FBF1F0642148430190009020684168A1
:1011600021F0200141602068416809060CD53A4908
:101170006164009900295AD0491E009194F85110D9
:101180000729F6D101990091416849060BD53349E9
:1011900021640099F1B3491E009194F85110072978
:1011A000F7D10199009140684FF0400780074FF058
:1011B000000514D5A06C90B14563A06CFFF74DF904
:1011C00000B167652068416821F002014160206834
:1011D000009989B3491E009181688907F8D5206874
:1011E0004068C00711D0E06C78B14563E06CFFF750
:1011F00034F900B167652068016821F040010160A1
:101200002068416821F001014160E587E586606D55
:10121000402800E011E01AD065652068C168806848
:101220000090012084F851003046BDE8FC81616DDA
:1012300041F040016165A5E704E0616D41F04001C6
:101240006165AEE7606D40F040006065C7E701266C
:10125000E3E7000020000020CD30000875300008D2
:1012600070B5040009D0606A002540B12561656150
:10127000A56294F8510040B10CE0012070BD606897
:10128000B0F5827FF4D0E561F2E784F85050204653
:1012900000F040F8022084F851002068016821F035
:1012A00040010160A088218900F4827001F40441AA
:1012B0000843A18901F400610843217C01F0020187
:1012C0000843217D01F001010843218B01F40071E5
:1012D0000843217F01F03801084394F8201001F001
:1012E00080010843218D01F4005108432168086002
:1012F000A069042101EA1040216848602068C169A2
:1013000021F40061C1616565012084F8510000206D
:1013100070BD0000F0B585B00024009401940294E3
:1013200003940068204988423CD12048C16941F4B7
:101330008041C161C16901F480410491816941F03A
:101340000801816180694FF4805600F00800049024
:101350000120CDE90060164F032569460395384604
:10136000FFF73AF9012231463846FFF731FA7000AB
:101370000226CDE9000669463846CDE90245FFF769
:101380002BF97003CDE90004694638460294FFF753
:1013900023F9B003CDE9000669463846CDE9024598
:1013A000FFF71AF905B0F0BD003800400010024008
:1013B000000C01402DE9F84F984616468A4604462F
:1013C000FFF70CFA814694F8510001281ED1BAF1BA
:1013D000000F73D0002E71D094F85000012815D062
:1013E000012784F85070032084F8510000256565BA
:1013F000C4F830A0A686E686A563A587E587656460
:101400002564A068B0F5004F03D00CE00220BDE8D1
:10141000F88F2068016821F04001016020680168B0
:1014200041F48041016020680168490603D40168E5
:1014300041F040010160E068B0F5006F606803D0E2
:1014400048B3012E27D047E008B1012E1FD1206BF1
:1014500021680088C86006E020688168890709D58E
:10146000216B0988C160206B801C2063E08E401EC8
:10147000E0860CE0FFF7B2F9A0EB0901414503D388
:10148000B8F1FF3F03D035E0B8F1000F32D0E08E65
:101490000028E1D123E0206B21680078087306E082
:1014A0002068816889070AD5216B09780173206B50
:1014B000401C2063E08E401EE0860DE02BE0FFF72D
:1014C0008DF9A0EB0901414503D3B8F1FF3F03D0EB
:1014D00010E0B8F1000F0DD0E08E0028E0D14A46B0
:1014E0004146204601F000FE08B120206065A0685A
:1014F00030B109E084F8517084F85050032086E739
:101500002068C1688068009084F8517004F8505FCA
:1015100060680028F3D0012079E72DE9FF4F81B002
:101520001D46934604464FF001090E9EFFF756F9FB
:10153000074694F851006168012806D0B1F5827F12
:101540003CD1A168C9BB042838D10298002871D0C9
:10155000BBF1000FFBD0002DF9D094F8500001280A
:101560002CD04FF0010A84F850A094F851000428C0
:1015700002D0052084F851004FF00008C4F85480D0
:10158000C4F838B0E587A58702992163E586A5866A
:10159000C4F84080C4F8448020680168490603D438
:1015A000016841F040010160E068B0F5006F6068DB
:1015B00008D0F0B3012D49D081E0FFE7022005B04B
:1015C000BDE8F08F08B1012D39D1206B216800886A
:1015D000C860206B801C2063E08E401EE0862EE0F9
:1015E0002068816889070FD5E18E69B1B9F1010FD3
:1015F0000AD1216B0988C160206B801C2063E08EBA
:10160000401EE0864FF0000920688168C9070CD0B1
:10161000E18F51B1C068A16B0880A06B801CA063F2
:10162000E08F401EE0874FF00109FFF7D7F8C01B9D
:1016300001E00BE067E0B04201D3701C50D1E08EB6
:101640000028CDD1E08F0028CAD13EE0206B216870
:1016500000780873206B401C2063E08E401EE086FB
:101660002DE02068816889070FD5E18E69B1B9F155
:10167000010F0AD1216B09780173206B401C206394
:10168000E08E401EE0864FF0000920688168C9079F
:101690000CD0E18F51B1C068A16B0870A06B401CE9
:1016A000A063E08F401EE0874FF00109FFF796F836
:1016B000C01BB04202D3701C01D011E086B1E08E95
:1016C0000028CED1E08F0028CBD13A4631462046C3
:1016D00001F00AFD50B12020606584F8508012E0CE
:1016E00084F851A084F85080032068E7A06818B9F6
:1016F0002068C1688068009084F851A084F8508008
:10170000606D0028F1D0012059E710B5401EB0F1FE
:10171000807F01D3012010BD4FF0E02460610F21D4
:10172000601702F0BAF80020A061072020610020B5
:1017300010BD70477047000070B590F83C20012A3A
:101740002CD0012480F83C40022280F83D20036820
:101750005A689D6822F070060A6832435A60104B3E
:1017600002689A420ED00F4B9A420BD0B2F1804FD2
:1017700008D00D4B9A4205D00C4B9A4202D00C4B2C
:101780009A4204D1496825F080031943916080F89A
:101790003D40002180F83C10084670BD022070BD1D
:1017A000002C0140003401400004004000080040CB
:1017B000000C004070B5044690F83C00002501285C
:1017C00017D0012684F83C60022084F83D00206890
:1017D000826822F0770222F47F42826008685028F3
:1017E00038D00DDC20284FD005DC90B3102811D163
:1017F0004AE0022070BD302846D040280AD13BE0A4
:1018000060282FD070280DD0B0F5805F03D0B0F5E0
:10181000005F12D0012584F83D60002084F83C0070
:10182000284670BDCB68D1E90121206801F07FFD19
:101830002068816841F0770109E0CB68D1E9012196
:10184000206801F074FD2068816841F48041816066
:10185000E1E719E0CA684968206801F03DFE5021BF
:10186000206806E0CA684968206801F046FE6021E9
:10187000206801F066FDCEE7CA684968206801F07B
:101880002BFE40212068F4E7226801461046F0E76D
:1018900070472DE9F04104460068C66805694FF0BD
:1018A0000007A90713D5B10711D5F91E0161012061
:1018B0002077206880698007204602D0FFF7E8FF84
:1018C00004E000F0BDF8204600F062F927776807D1
:1018D00016D5700714D521686FF004000861022046
:1018E00020772068806910F4407F204602D0FFF7FF
:1018F000CFFF04E000F0A4F8204600F049F9277774
:10190000280715D5300713D521686FF00800086146
:10191000042020772068C0698007204602D0FFF7A6
:10192000B7FF04E000F08CF8204600F031F927778B
:10193000E80616D5F00614D521686FF0100008618E
:10194000082020772068C06910F4407F204602D02C
:10195000FFF79EFF04E000F073F8204600F018F94E
:101960002777E80708D0F00706D021686FF001005C
:101970000861204600F068F9280608D5300606D52B
:1019800021686FF0800008612046FFF7D2FE6806EC
:1019900008D5700606D521686FF040000861204622
:1019A00000F053F9A8060AD5B00608D521686FF0F3
:1019B000200008612046BDE8F041FFF7BBBEBDE84E
:1019C000F081000000B585B00021009101910291E5
:1019D0000391164B0268164802219A420FD1826980
:1019E00042F0100282618069039100F010000490BF
:1019F0004FF47070CDE9000169460E4811E00E4BBE
:101A00009A4210D1826942F0080282618069039192
:101A100000F0080004904FF44070CDE900016946E1
:101A20000648FEF7D9FD05B000BD000000340140B6
:101A3000001002400010014000080040000C01406E
:101A4000704770B5044690F83C0000260D4601280A
:101A50000FD0012084F83C006AB1042A1DD0082A66
:101A60002FD00C2A3FD00126002084F83C003046BD
:101A700070BD022070BD206801F06CFC2068816997
:101A800041F0080181612068816921F004018161D0
:101A9000206881692A69114311E0206801F08AFCFD
:101AA0002068816941F4006181612068816921F4C5
:101AB00080618161206881692A6941EA022181612E
:101AC000D2E7206801F0ACFC2068C16941F0080150
:101AD000C1612068C16921F00401C1612068C16948
:101AE0002A69114311E0206801F0CEFC2068C16929
:101AF00041F40061C1612068C16921F48061C16164
:101B00002068C1692A6941EA0221C161ACE710B5C8
:101B1000040003D094F83D0010B107E0012010BD8F
:101B2000002084F83C00204600F01EF8022084F8D3
:101B30003D00211D206801F09FFB012084F8460034
:101B400084F83E0084F83F0084F8400084F84100A7
:101B500084F8420084F8430084F8440084F8450087
:101B600084F83D00002010BD08B500680649884291
:101B700008D10648C16941F00401C161C06900F0A3
:101B80000400009008BD0000000800400010024062
:101B90007047000010B50446022249B104290ED056
:101BA000082913D094F84100012816D0012010BD57
:101BB00094F83E000128F9D184F83E200FE094F813
:101BC0003F000128F2D184F83F2008E094F840005B
:101BD0000128EBD184F8402001E084F84120012263
:101BE000206801F097FB13492068134A884201D00E
:101BF000904203D1436C43F400434364206888421D
:101C00000DD090420BD0B0F1804F08D00B498842E4
:101C100005D00B49884202D00A49884204D1816824
:101C200001F00701062903D0016841F001010160BC
:101C3000002010BD002C0140003401400004004091
:101C400000080040000C0040704770477047704724
:101C5000F8B5016804460868CA684B6910F00F0FB0
:101C60004FF0000559D003F0010602F49077374396
:101C700065D0C10705D0D10503D5616C41F00101E4
:101C80006164410705D5D90703D0616C41F00201B9
:101C90006164810705D5D90703D0616C41F0040167
:101CA0006164010707D502F02001314303D0616C64
:101CB00041F008016164616C00293AD0800604D5C6
:101CC000900602D5204601F092FC20684069616CC4
:101CD000C0F38010090700D460B3204601F060FC17
:101CE00020684069400621D52068143050E8001F64
:101CF00021F0400140E80012002AF5D1E06BA8B1C4
:101D00006D494163E06BFEF7CBFB002811D0E06B1F
:101D1000416B01B0BDE8F040084783060FD593063C
:101D20000DD52046BDE8F84001F061BC2046FFF724
:101D30008EFFF8BD2046FFF78AFF6564F8BD266B6D
:101D40002023012E7CD1C6067AD5D60678D5086820
:101D50004868009048694FF00206400640D5E16BA4
:101D6000086840680004000CE8D0A28D8242E5D9E2
:101D7000E085886920282DD020680C3050E8001FAD
:101D800021F4807140E80012002AF5D12068143057
:101D900050E8001F21F0010140E80012002AF5D1AF
:101DA0002068143050E8001F21F0400140E8001284
:101DB000002AF5D184F84230256320680C3050E8C1
:101DC000001F21F0100140E80012002AF5D1E06B5D
:101DD000FEF743FB6663A08DE18D401A81B22AE0D5
:101DE000A08DE18D401A81B2E08D0028A6D0002997
:101DF000A4D022680C3252E8000F20F4907042E820
:101E00000007002FF5D12068143050E8002F22F091
:101E1000010240E80027002FF5D184F84230256305
:101E200020680C3050E8002F22F0100240E8002318
:101E3000002BF5D166632046FFF708FFF8BDFFE7EA
:101E400005062BD5150629D594F841002128F5D192
:101E5000A068B0F5805F01D12069B0B1206A411C53
:101E60002162216800784860E08C401E0004000C6C
:101E7000E084E3D12068C16821F08001C16020685E
:101E8000C16841F04001C160D8E7206A0088C0F312
:101E900008004860206A801C2062E5E74006CDD536
:101EA0005006CBD5CA68204622F04002CA6084F8AA
:101EB000413000F00DF9C1E79135000870B504001C
:101EC00004D094F84100002510B106E0012070BD57
:101ED00084F84050204600F023F8242084F8410084
:101EE0002068C16821F40051C160204601F0E0FB88
:101EF0002068016921F4904101612068416921F065
:101F00002A0141612068C16841F40051C1606564E3
:101F1000202084F8410084F842006563002070BDF1
:101F200030B585B0002400940194029403940068B5
:101F3000184988422CD11848816941F48041816157
:101F4000816901F480410491816941F0040181615A
:101F50008069124D00F0040004904FF4007000906E
:101F6000022001900320039069462846FEF734FBC7
:101F70002815CDE90004694628460294FEF72CFB9B
:101F8000002211462520FEF719FE2520FEF708FE47
:101F900005B030BD0038014000100240000801408B
:101FA00090F84230202B01D00220704721B11AB1A5
:101FB0000023036301F0D8BB0120704770B50068AF
:101FC000184988422DD1194C174E20780025305CD5
:101FD0000D2808D00A2806D008280BD07F2809D061
:101FE000617863290CD361780F48643001F098FA66
:101FF00065700CE0607850B16078401E607006E05B
:102000006178094A64320A44491C61701070257075
:10201000207801223118BDE8704003484838FFF7A6
:10202000BFBF70BD00380140F40200200C0000204A
:102030002DE9F843044690F84100984616460D46AF
:10204000202802D00220BDE8F88385B17EB10020AF
:102050006064212084F84100FEF7C0FBA68481461D
:10206000E684A0682027B0F5805F02D003E001205D
:10207000E9E7206910B12E4600250EE000260CE0AD
:102080008021204601F08BFBA8B9C6B116F8010BE0
:1020900021684860E08C401EE084E08C4B464FF0A5
:1020A0000002CDF800800028EAD14FF04001204620
:1020B00001F075FB40B184F841700320C3E735F8A7
:1020C000020BC0F30800E3E784F841700020BAE790
:1020D000704710B504000FD000F010F8E0682168D8
:1020E00040F080000860616820690843A1680843E7
:1020F00021684860002010BD012010BD08B50068AF
:102100000649884208D10648C16941F40061C161AD
:10211000C06900F40060009008BD0000002C004081
:1021200000100240C1680068016000207047FEE7AF
:102130000148FEF75BBB0000440000200148FEF7A9
:10214000B7BB0000440000200148FEF74FBB000071
:10215000980000200148FEF7ABBB0000980000206B
:1021600038B5406A002190F83D202B4B46F2A81468
:102170001B68B3FBF4F3C3EBC30303EB83030093CC
:102180003BB15B1E009303681B689B0505D5009B54
:10219000F6E7036C43F020030364436B03B19962D9
:1021A000836B03B1996203681C6824F480641C602B
:1021B0004185436B03B15963836B03B15963036872
:1021C0001C6824F001041C6090F83D402023602C22
:1021D0000BD0282434EA02020FD080F83D3080F87A
:1021E0003E1000BFFEF77CFC38BD80F83D3080F823
:1021F0003E100164FEF7F8FA38BD0268136843F038
:10220000010313600268136843F480631360016381
:1022100080F83D40E6E700002000002000684169AA
:10222000C943090601D400210161704770B5044615
:1022300090F83D0094F83E10102901D0402906D1B5
:10224000222804D121680A6822F400620A60282149
:1022500031EA00024FF000054FF0200626D0216839
:102260004968090505D4602803D084F83D6084F8E6
:102270003E50256320684168090537D5416821F43F
:1022800000614160606B90F821203C49012A11D027
:102290004163606BFEF704F938B32068016821F0F0
:1022A0000101016084F83D60606B1CE0256384F8E7
:1022B0003D10DFE7A06B4163A06BFEF7F1F8A0B122
:1022C00020684169C943490605D40069616A0870FC
:1022D000606A401C60622068016821F001010160B1
:1022E00084F83D60A06B416B884710E094F83D1086
:1022F000602910D04169C943490605D40069616A63
:102300000870606A401C60622046FEF7E9FB206CA2
:10231000C1071CD115E084F83D6025644169C943BB
:10232000490605D40069616A0870606A401C6062F1
:102330002068016821F0010101602046FEF754FA8F
:10234000E5E7810703D4410701D4000704D52068DD
:10235000416821F4E061416094F83D00216C490737
:102360000BD5282809D10648E062256384F83D6032
:1023700084F83E502046FEF7B4FB70BD6121000892
:102380000000FFFF10B5C26A438D0168042B06D020
:10239000438D032B08D0438D022B1DD012E04A68D9
:1023A00022F480624A600CE04B6823F480634B6047
:1023B000042A06D0022A04D001680A6822F4806246
:1023C0000A6001680969426A1170416A491C4162E8
:1023D000418D491E418510BD012A34D0102A32D0CA
:1023E000042A34D0022A32D00B6843F400730B6005
:1023F00001680969436A1970416A491C4162438D49
:102400005B1E438503681B690B70416A491C41626E
:10241000418D491E418501684B6823F440734B6030
:10242000202180F83D1090F83E300021402B80F8AC
:102430003E1010D0082A02D0202A00D012210163B9
:10244000FEF750FB10BD0B6823F48063CFE70B68E9
:1024500043F48063CBE70163FEF746FB10BD000049
:1024600038B590F83D10222910D1C36A418D032957
:102470000DD901680969426A1170416A491C4162BB
:10248000418D491E4185418D032906D038BDC26A60
:10249000022A02D0012906D029B10068416821F43E
:1024A0008061416038BD2A4A46F2A81400211268B2
:1024B000B2FBF4F202EB8202009202682024009D3B
:1024C0006D1E009526D01568AD05F8D4156825F465
:1024D000806515600268556825F4E06555600268FE
:1024E0001269456A2A70426A521C4262428D521E2B
:1024F000428580F83D4090F83E2080F83E10402A0A
:1025000021D0082B02D0202B00D012210163FEF72E
:10251000E9FA38BD036C43F020030364536823F4E5
:10252000E063536002681269436A1A70426A521C7F
:102530004262428D521E428580F83D4080F83E1036
:10254000FEF7CEFA38BD0163FEF7CEFA38BD0000C3
:102550002000002010B5C26A90F83D1021290BD14F
:10256000418D51B1416A026809781161416A491C83
:102570004162418D491E418510BD20230021082A5A
:1025800013D0202A11D012F5803F0ED00268546873
:1025900024F4E06454601122026380F83E1080F855
:1025A0003D3000BFFEF79FFA10BD0268546824F466
:1025B000E06454600268146844F4007414600163B9
:1025C00080F83D3090F83E2080F83E10402AE9D156
:1025D000FEF78BFA10BD000010B590F83D1090F892
:1025E0003E30C26A048DB4B1212903D0402B11D1F1
:1025F00022290FD1418DE1B390F83E10402942D0FD
:10260000416A026809781161416A491C4162418D41
:10261000491E418510BD2129E8D120230021082A27
:1026200013D0202A11D012F5803F0ED002685468D2
:1026300024F4E06454601122026380F83E1080F8B4
:102640003D3000BFFEF74FFA10BD0268546824F415
:10265000E06454600268146844F400741460016318
:1026600080F83D3090F83E2080F83E10402AE9D1B5
:1026700000E002E0FEF739FA10BD0068416821F47D
:102680008061416010BDBDE8104000F0F3B800006B
:1026900078B590F83E50C26A046B90F83D60002314
:1026A0000168222E73D1066D0EB9402D6FD0056DD5
:1026B0001DB90569B5F5404F1BD0458D95B3468DC5
:1026C000484D012E20D0448D022C4DD00C6844F48E
:1026D00080640C6001684C68240579D5AA4273D0E7
:1026E000012A71D0082A6FD0102A6DD0202A6BD011
:1026F0006EE04A698A6900920A6842F480720A6050
:10270000016D491C016578BDAA4214D10A6822F402
:1027100080620A6001684A68120504D50A6822F4DA
:10272000806217E0FFE74A698A6900920A6842F40A
:1027300000720A6050E0082A10D0202A0ED0122C15
:102740000AD0042A03D0022A01D0102AE6D10A684E
:1027500042F480620A603BE0012ADFD00A6822F47A
:1027600080620A600168DEE7042A11D0022A0FD0D5
:10277000102A0DD00C6844F400640C6001684C69A8
:102780008C6900940C6824F480640C6008E025E0F7
:102790000C6844F480640C6001684C69896900919C
:1027A00001684C68240517D5AA4207D0012A05D034
:1027B000082A03D0102A01D0202A0DD14A6842F4F9
:1027C00080524A6008E0FFE74A6842F480524A605B
:1027D00001684A6989690091036578BD486988691B
:1027E000009078BD0000FFFF90F83E10402910D007
:1027F0000169B1F5804F19D0016DA9B3016D0129AF
:1028000010D1416C5FF0F10201F4407142EAD11144
:1028100006E0016D0029416C05D0C9B241F001010B
:1028200000680161704701F0FE01F9E790F83D1082
:102830002129416C09D0C9B241F00101026811613E
:10284000416B29B1896A49B902E001F0FE01F5E75F
:10285000816B0029E6D0896A0029E3D000684168CD
:1028600041F4006141607047FFE7416CF02201F4E0
:102870004071CBE710B590F83D10026D4AB1026D82
:10288000012A14D0026D022A16D0BDE81040FFF7CD
:10289000C5BCC16C0129816C02D0C1F3072108E0DD
:1028A0000268C9B21161016D891C016510BD816C9E
:1028B000C9B20268116123E022291CD0428D0AB1FD
:1028C000212920D0428D002AF0D12129EED10168A2
:1028D0004A6822F4E0624A6001680A6842F40072C1
:1028E0000A6000210163202280F83D2080F83E101C
:1028F000FEF7FBF810BD01680A6842F480720A60B6
:10290000016D491CD1E7416A026809781161416A89
:10291000491C4162418D491E418510BD38B50C46A8
:1029200090F83D2000212825954302680B4605D0EC
:1029300051699169009180F83C3038BD556825F4A3
:1029400080655560E243540700D50121120601D588
:10295000828900E0028B80F83C3092B2FDF745FF9F
:1029600038BD00002DE9F04190F83D300446C26AC0
:10297000002120261E4F00686FF48065082A01D0D0
:10298000202A01D1282B04D0212B17D04561BDE886
:10299000F081E762426822F4E062426020684561AB
:1029A0002068026822F480620260216384F83D603E
:1029B00084F83E102046FEF794F8E8E7E76221220B
:1029C000226384F83D6084F83E10416821F4E061A0
:1029D0004160206845612068016821F480610160E0
:1029E0002046FFF71BFC2046FEF781F8CFE70000EA
:1029F0000000FFFFF8B590F83D60044600684168AC
:102A000021F4E0614160206800254169009101687E
:102A100041F0010101602068016821F480610160DA
:102A200020684168090520D5474F222E48D02A2E1C
:102A300046D0616B096849686185618D19B1216C67
:102A400041F004012164416821F400614160606B40
:102A5000FDF7BEFD012808D0606B4763606BFDF792
:102A60001FFD10B1606B416B8847608D08B3206813
:102A70004169C943490708D40069616A0870606AFE
:102A8000401C6062608D401E608520684169C943BA
:102A9000490608D40069616A0870606A401C606277
:102AA000608D401E6085608D18B1206C40F0040080
:102AB0002064206C00B32046BDE8F840FFF7B6BBA9
:102AC000A16B096849686185618D19B1216C41F07C
:102AD00004012164416821F400614160A06BFDF7AD
:102AE00077FD0128C1D0A06B4763A06BFDF7D8FC30
:102AF0000028BAD0A06BB6E72A2E06D1256328207D
:102B000084F83D002046FDF7F1FF94F83D102020A9
:102B100028290DD0216B222901D0222E07D125632F
:102B200084F83D0084F83E502046FDF7DFFFF8BDF5
:102B30000649E162256384F83D0084F83E50204652
:102B4000FDF7CFFFF8BD0000612100080000FFFF86
:102B50002DE9F04F85B0002435480094019402948B
:102B60000394816941F020018161816901F02001B4
:102B70000491816941F004018161816901F00401DE
:102B80000491816941F010018161816901F01001B6
:102B90000491816941F0080181618069DFF89490B6
:102BA00000F008000490002220214846FDF710FEA6
:102BB000DFF884A04FF4C057002239465046FDF795
:102BC00007FE4FF40048002241465046FDF700FE44
:102BD000DFF868B0002238215846FDF7F9FD2020C3
:102BE00001250226CDE90005CDE9024669464846A1
:102BF000FDF7F2FC00970396CDE901546946504673
:102C0000FDF7EAFCCDF800800396CDE90154694652
:102C10005046FDF7E1FC3820CDE90005CDE902463C
:102C200069465846FDF7D8FC05B0BDE8F08F0000B6
:102C3000001002400010014000080140000C01405B
:102C4000104810B50E4901604FF4827141600021B7
:102C50008160C1604FF400720161C0E90512282251
:102C6000C0E90721416281620A21C162FEF7F8FAD8
:102C7000002803D0BDE81040FDF7EDBB10BD0000FB
:102C800000380040EC00002010B58EB000240794FE
:102C9000089409940A940B941C2168460C94FDF73F
:102CA00043FB20481E4901603F21C0E901141E4931
:102CB000C0E9031480218161FEF729FF08B1FDF707
:102CC000CAFB4FF48050079007A91648FEF772FD23
:102CD00008B1FDF7C0FB0B940BA912480C94FEF74A
:102CE0002BFD08B1FDF7B7FB602000900F48CDE940
:102CF0000104082269460B480494FEF7A2FE08B1BD
:102D0000FDF7A9FB0C2269460648FEF79AFE08B1BA
:102D1000FDF7A1FB0348FEF755FE0EB010BD000005
:102D2000000800401C0200203F420F001FA10700C6
:102D30000C4810B50A4901604FF4E13141600021AF
:102D400081600C22C160C0E904128161C161FFF79A
:102D5000B5F8002803D0BDE81040FDF77CBB10BDDE
:102D600000380140AC0200200B4810B50949016051
:102D70004FF4C07141607F218160C1600021016119
:102D8000FFF7A7F9002803D0BDE81040FDF763BBAB
:102D900010BD0000002C00400C0A0020FEE7FEE7FA
:102DA0007047000070B5B0B03A48FDF72FFA040440
:102DB000240C05D03C2C07D964231D2236A164E0E5
:102DC00064231A223CA160E0402120A8FDF7ACFA60
:102DD0002246304920A8FDF738FA20A80D210155D8
:102DE00020440A214170A41CA4B26423082239A102
:102DF0003B48FFF71DF96423224620A93848FFF716
:102E000017F96423022232A13548FFF711F9802116
:102E10006846FDF789FA80236A46214620A800F01B
:102E20007DF818B1642321222EA12EE000246D46E6
:102E300003E0641CA4B2802C04D2285D0028F8D0E2
:102E4000FF28F6D00026204609E0295C49B1202958
:102E500007D3FF2905D0761C401CB6B280B280286B
:102E6000F3D36423082228A11D48FFF7E1F81EB11F
:102E700029196423324602E06423072225A1184859
:102E8000FFF7D6F86423022211A11548FFF7D0F806
:102E900030B070BD24000020535049204572726F3D
:102EA000723A20436F6D6D616E6420746F6F206C99
:102EB0006F6E670D0A000000535049204572726F13
:102EC000723A20456D70747920636F6D6D616E6428
:102ED0000D0A00005350492054583A2000000000C9
:102EE000AC020020535049204572726F723A204361
:102EF0006F6D6D756E69636174696F6E206661696F
:102F00006C65640D0A0000005350492052583A2065
:102F10000000000028656D70747929002DE9F04FDC
:102F2000044650488A4689B090F851109846164693
:102F300000252F464FF47A79032903D090F85100E9
:102F400004280BD14748FEF7FBF800974648FFF7E7
:102F5000E9F80098401C00904845F7DB36B1B8F11D
:102F6000000003D001463046FDF7BCF900224FF4C3
:102F700080513E48FDF72CFCBB4600974F463A482F
:102F8000FFF7D0F80098B946401C00904845F6DBA2
:102F90004CF2503714B3BAF1000007D00246642354
:102FA00021463048FEF706FA050051D1BAF1040F68
:102FB00014D32078462801D066280FD1607847289E
:102FC00001D067280AD1A078522801D0722805D1F3
:102FD000E078442801D0642800D1254F584604E009
:102FE0002148FFF79FF80098401C0090B842F7D3A3
:102FF0001EB3B8F1000F20D0FF22202101A8FDF759
:1030000069F9444600274FF0640A202C01D920209A
:1030100000E020468046F219434601A91148CDF848
:1030200000A0FEF77AFA050012D1A4EB0800040410
:1030300007EB0800240C87B2E7D14C46CDF800B06E
:103040000948FFF76FF80098401C0090A042F7DB9A
:10305000012211030548FDF7BBFB09B02846BDE876
:10306000F08F0000EC0000200C0A0020000C014052
:1030700020A1070008B500210091134945F6C05270
:103080000968B1FBF2F16422514300910168009A92
:10309000A2B1521E00928A689207F8D50A6822F0FF
:1030A00040020A6001684A6822F0E0024A60016852
:1030B000C9680091072180F8511008BD426D42F0A7
:1030C00040024265EAE700002000002001684A68EB
:1030D00022F080024A6001680A6822F040020A6019
:1030E000072180F851107047F8B515460E460B467B
:1030F000009204460122022100F010F840B9334644
:10310000002280212046009500F008F8002804D015
:10311000606D40F0200060650320F8BD2DE9F843A4
:103120001E46914688460446089DFDF757FB401B06
:10313000351AFDF753FB074625480068C0F3CB302E
:10314000684338E0701C37D0FDF748FBC01BA8422D
:1031500003D215B1009860B32CE02068416821F0DB
:10316000E00141606068B0F5827F0BD1A068B0F5E6
:10317000004F02D0B0F5806F04D12068016821F0C3
:1031800040010160A06AB0F5005F09D120680168C4
:1031900021F4005101602068016841F40051016090
:1031A000012084F85100002084F850000320BDE87D
:1031B000F8830025401E00902068816838EA0100ED
:1031C00004D000214945BDD10020F0E70121F9E7F5
:1031D000200000207047FDF78BBC30B58FB0282150
:1031E0006846FDF7A1F814210AA8FDF79DF8012013
:1031F000049010200590002402254FF46010CDE9C2
:103200000840CDE9005407956846FDF709FE08B16E
:1032100072B6FEE70F20CDE90A054FF48060CDE9D4
:103220000C4002210AA80E94FDF7FAFC002801D0F8
:1032300072B6FEE70FB030BD704700000148FEF7E0
:1032400028BB0000D40100200148FEF722BB00008B
:10325000640200200148FEF71CBB0000640200204D
:103260000148FEF716BB0000640200200148FEF78B
:1032700010BB000064020020F0B50268204C214D14
:10328000214E224F224B4FF0804CA04209D0984251
:1032900007D0604505D0A84203D0B04201D0B84263
:1032A00004D122F0700E4A6842EA0E02A04209D010
:1032B000984207D0604505D0A84203D0B04201D063
:1032C000B84203D122F44075CA682A434D6922F0FE
:1032D00080022A4302608A68C2620A688262A0424F
:1032E00001D0984201D1096901630121416101695D
:1032F000C90703D0016921F001010161F0BD00009F
:10330000002C01400004004000080040000C004078
:103310000034014010B501F01F030121046A9940F7
:103320008C430462016A9A401143016210BD10B5DA
:10333000846842EA032224F47F440A4322438260E1
:1033400010BD826822F070020A4342F007018160DA
:1033500070470000F0B5036A026A22F001020262BF
:1033600042688469124E24F073050C682C4323F0E4
:1033700002058B682B430D4DA84201D0B04205D108
:1033800023F00807CB683B4323F00403A84201D095
:10339000B04205D14D6922F4407215438A692A432F
:1033A00042608461496841630362F0BD002C0140C2
:1033B00000340140F0B5026A036A23F0100303628F
:1033C000436884690D6824F4E64444EA05248D6862
:1033D00022F0200242EA05120F4D104EA84201D001
:1033E000B04206D1CF6822F0800242EA071222F0F2
:1033F0004002A84201D0B04207D14D6923F4406396
:1034000043EA85038D6943EA850343608461496823
:1034100081630262F0BD0000002C014000340140D5
:10342000F0B5026A036A23F4807303624368C469D7
:1034300022F4007224F073050C68124E2C438D6840
:1034400042EA05220E4DA84201D0B04206D1CF6813
:1034500022F4006242EA072222F48062A84201D0EC
:10346000B04207D14D6923F4405343EA05138D69F7
:1034700043EA05134360C4614968C1630262F0BD59
:10348000002C01400034014030B5046A026A22F485
:10349000805202624268C3690D6823F4E64343EA3E
:1034A00005238D6824F4005444EA0534084DA842ED
:1034B00002D0084DA84204D14D6922F4804242EA6C
:1034C00085124260C36149680164046230BD000036
:1034D000002C01400034014010B5036A046A24F056
:1034E00001040462846924F0F00444EA021423F025
:1034F0000A020A438461026210BD10B5036A046ABD
:1035000024F010040462846923F0A00324F47044BE
:1035100044EA023243EA01118261016210BD0000F7
:1035200070B50D46642900D36325174C2179102905
:1035300007D3E178491C01F00F01E1702179491EA0
:103540002171A178114E01EBC10202EB011106EBD2
:10355000810301462A461846FCF777FEA178002031
:1035600001EBC10202EB011106EB81014855A17884
:1035700006F5C8604554A078401C00F00F00A0700C
:103580002079401C207170BD0C000020BC0300207D
:1035900010B5406A0021C185C184FEF758FB10BDFB
:1035A00001680C3151E8002F22F4907241E80023A9
:1035B000002BF5D10168143151E8002F22F00102EF
:1035C00041E80023002BF5D1016B012909D10168E5
:1035D0000C3151E8002F22F0100241E80023002BAB
:1035E000F5D1202180F8421000210163704708B511
:1035F00090F84210222901D0022008BD82684FF4C1
:1036000080539A4201D1016921B1816A9A421BD04B
:103610004AB10AE00268816A5268C2F308020A806D
:10362000816A891C08E0026972B10268526802F07E
:103630007F020A70816A491C8162C18D491E09049A
:10364000090CC18503D01BE002685268F1E70168EC
:10365000CA6822F02002CA600168CA6822F4807237
:10366000CA6001684A6922F001024A61202180F89B
:10367000421000214163026B012A03D0FEF79EFC39
:10368000002008BD016301680C3151E8002F22F0D1
:10369000100241E80023002BF5D101680A68D20628
:1036A00002D50A6849680091818DFEF7CFFAE7E7F5
:1036B00070B5044600680169E26821F44051114385
:1036C00001612169A0680843616908432168CA68EB
:1036D00041F20C639A430243CA6020684169A269BF
:1036E00021F44071114341611E492068884202D192
:1036F000FDF73CFB01E0FDF729FB00EBC00101EB0E
:103700000012606864218000B2FBF0F3B3FBF1F3B8
:103710006FF018067343B2FBF0F5B2FBF0F605EB61
:103720008305322303EB0515B5FBF1F5B6FBF1F686
:1037300005F0F00505EB0615B2FBF0F6B2FBF0F074
:10374000B0FBF1F06FF01802504306EB800003EB82
:103750000010B0FBF1F0216800F00F0028448860F1
:1037600070BD00000038014081628285C285002161
:103770004164222180F84210016921B10168CA68C0
:1037800042F48072CA6001684A6942F001024A61EB
:103790000068C16841F02001C160002070472DE938
:1037A000F843984617460D460446089E24E0701CD0
:1037B00022D0FDF713F8A0EB0800B0421AD8CEB122
:1037C0002068C168490717D5802D15D0402D13D02A
:1037D0000168C94309070FD40168002540680090BB
:1037E0002046FFF7DDFE0820606484F84050012089
:1037F000BDE8F8830320FBE72068006835EA000095
:1038000004D00020B842D2D00020F1E70120F9E72F
:103810002DE9F041070028D039B3EFF3108672B6D6
:10382000174C20794FF0000810B31648E278855CF9
:10383000491EC8B2A84200D2CDB2E0782A4600EBB9
:10384000C00101EB0010104901EB80013846FCF784
:10385000FCFC07F80580E078401C00F00F00E070E9
:103860002079401E207146B108E00020BDE8F081BB
:1038700006B962B687F80080F7E762B62846F5E732
:103880000C000020FC090020BC0300200148FEF7CA
:10389000DFB90000AC020020FEE70907090E00288E
:1038A00004DB00F1E02080F80014704700F00F0006
:1038B00000F1E02080F8141D7047000094B0FDF77F
:1038C0001FF9FFF78AFCFFF743F9FFF731FAFFF71B
:1038D000DBF9FFF7B5F94E4CA06940F00100A0619B
:1038E000A06900F0010004904A48416821F0E061BD
:1038F00041F000714160FFF737FA08214648FEF7B2
:1039000049F90C214448FEF745F9DFF80C81DFF84E
:103910000C91D8F80020C2F83C90D8F8000000259F
:1039200005643FA63046FCF771FC82B26B1E31463F
:103930004348FEF77DFB0295A06940F00400A061BA
:10394000A069694600F004000490A01500900220D0
:103950000190032003903B48FCF73EFE00224FF00D
:1039600080611046FDF738FA37480570374900780E
:10397000012201443248FEF713FBDFF8D4A04FF4D4
:10398000FA7649F6404B00245F4612961298411E83
:103990001291FBD22F48FEF7C5FB641CBC42F4D346
:1039A000DAF804105446494502D1C4E9015901E04E
:1039B000C4E90195D8F800206168D163D8F8000007
:1039C000A1680164322104A8FFF722FF070017D085
:1039D0001D2F00D91D273A4604A91F48FCF735FCC6
:1039E0001D4864233A46C555012020701A491448E1
:1039F000FEF71EFB6423022218A11148FEF718FBF4
:103A000020780028BFD0FFF7CDF92570BBE7000074
:103A100000100240000001401C02002020A107000D
:103A20000D0A53544D333220535049205472616E65
:103A3000736665722052656164790D0A00000000AA
:103A4000AC020020000801400C000020F40200201D
:103A5000000000200C0A0020240000200D0A0000B5
:103A6000010202030405060708090A0B0C0D0E0FDC
:103A7000101000000000000000000102030406070F
:103A8000080900000000010203040000AC3A00082D
:103A900000000020240000006C010008D03A00085B
:103AA000240000205C1000008801000800000000D5
:103AB00020A107000000000000000000000000003E
:103AC00001000000100000000000000000127A0059
:0400000508000131BD
:00000001FF
